{
  "abi": [
    {
      "inputs": [],
      "stateMutability": "nonpayable",
      "type": "constructor"
    },
    {
      "anonymous": false,
      "inputs": [
        {
          "indexed": true,
          "internalType": "address",
          "name": "addy",
          "type": "address"
        },
        {
          "indexed": false,
          "internalType": "string",
          "name": "message",
          "type": "string"
        }
      ],
      "name": "done",
      "type": "event"
    },
    {
      "inputs": [],
      "name": "awaiting",
      "outputs": [
        {
          "internalType": "bool",
          "name": "",
          "type": "bool"
        }
      ],
      "stateMutability": "view",
      "type": "function"
    },
    {
      "inputs": [],
      "name": "complete",
      "outputs": [
        {
          "internalType": "bool",
          "name": "",
          "type": "bool"
        }
      ],
      "stateMutability": "view",
      "type": "function"
    },
    {
      "inputs": [],
      "name": "data",
      "outputs": [
        {
          "internalType": "string",
          "name": "",
          "type": "string"
        }
      ],
      "stateMutability": "view",
      "type": "function"
    },
    {
      "inputs": [
        {
          "internalType": "uint256",
          "name": "index",
          "type": "uint256"
        }
      ],
      "name": "finalizeBid",
      "outputs": [],
      "stateMutability": "nonpayable",
      "type": "function"
    },
    {
      "inputs": [],
      "name": "getBidCount",
      "outputs": [
        {
          "internalType": "uint256",
          "name": "",
          "type": "uint256"
        }
      ],
      "stateMutability": "view",
      "type": "function"
    },
    {
      "inputs": [
        {
          "internalType": "uint256",
          "name": "index",
          "type": "uint256"
        }
      ],
      "name": "getBidSummary",
      "outputs": [
        {
          "internalType": "address",
          "name": "",
          "type": "address"
        },
        {
          "internalType": "uint256",
          "name": "",
          "type": "uint256"
        },
        {
          "internalType": "string",
          "name": "",
          "type": "string"
        }
      ],
      "stateMutability": "view",
      "type": "function"
    },
    {
      "inputs": [],
      "name": "getSummary",
      "outputs": [
        {
          "internalType": "address",
          "name": "",
          "type": "address"
        },
        {
          "internalType": "string",
          "name": "",
          "type": "string"
        },
        {
          "internalType": "uint256",
          "name": "",
          "type": "uint256"
        }
      ],
      "stateMutability": "view",
      "type": "function"
    },
    {
      "inputs": [],
      "name": "getcontractBalance",
      "outputs": [
        {
          "internalType": "uint256",
          "name": "",
          "type": "uint256"
        }
      ],
      "stateMutability": "view",
      "type": "function"
    },
    {
      "inputs": [
        {
          "internalType": "uint256",
          "name": "",
          "type": "uint256"
        }
      ],
      "name": "hiddenBids",
      "outputs": [
        {
          "internalType": "uint256",
          "name": "ID",
          "type": "uint256"
        },
        {
          "internalType": "uint256",
          "name": "bidAmount",
          "type": "uint256"
        },
        {
          "internalType": "string",
          "name": "bid",
          "type": "string"
        }
      ],
      "stateMutability": "view",
      "type": "function"
    },
    {
      "inputs": [
        {
          "internalType": "uint256",
          "name": "bidAmount",
          "type": "uint256"
        },
        {
          "internalType": "string",
          "name": "desc",
          "type": "string"
        }
      ],
      "name": "makeBid",
      "outputs": [],
      "stateMutability": "nonpayable",
      "type": "function"
    },
    {
      "inputs": [],
      "name": "manager",
      "outputs": [
        {
          "internalType": "address payable",
          "name": "",
          "type": "address"
        }
      ],
      "stateMutability": "view",
      "type": "function"
    },
    {
      "inputs": [
        {
          "internalType": "uint256",
          "name": "_amt",
          "type": "uint256"
        }
      ],
      "name": "payBid",
      "outputs": [],
      "stateMutability": "payable",
      "type": "function"
    },
    {
      "inputs": [],
      "name": "recievePay",
      "outputs": [],
      "stateMutability": "nonpayable",
      "type": "function"
    },
    {
      "inputs": [],
      "name": "status",
      "outputs": [
        {
          "internalType": "string",
          "name": "",
          "type": "string"
        },
        {
          "internalType": "bool",
          "name": "",
          "type": "bool"
        },
        {
          "internalType": "string",
          "name": "",
          "type": "string"
        },
        {
          "internalType": "bool",
          "name": "",
          "type": "bool"
        }
      ],
      "stateMutability": "view",
      "type": "function"
    },
    {
      "inputs": [
        {
          "internalType": "string",
          "name": "description",
          "type": "string"
        },
        {
          "internalType": "address payable",
          "name": "creator",
          "type": "address"
        }
      ],
      "name": "tender",
      "outputs": [],
      "stateMutability": "nonpayable",
      "type": "function"
    },
    {
      "inputs": [],
      "name": "verifyManager",
      "outputs": [
        {
          "internalType": "bool",
          "name": "",
          "type": "bool"
        }
      ],
      "stateMutability": "view",
      "type": "function"
    },
    {
      "inputs": [],
      "name": "winIndex",
      "outputs": [
        {
          "internalType": "uint256",
          "name": "",
          "type": "uint256"
        }
      ],
      "stateMutability": "view",
      "type": "function"
    },
    {
      "inputs": [],
      "name": "winner",
      "outputs": [
        {
          "internalType": "address",
          "name": "bidder",
          "type": "address"
        },
        {
          "internalType": "uint256",
          "name": "bidAmount",
          "type": "uint256"
        },
        {
          "internalType": "string",
          "name": "bid",
          "type": "string"
        }
      ],
      "stateMutability": "view",
      "type": "function"
    },
    {
      "inputs": [
        {
          "internalType": "address payable",
          "name": "reciever",
          "type": "address"
        }
      ],
      "name": "withdrawFees",
      "outputs": [],
      "stateMutability": "nonpayable",
      "type": "function"
    }
  ],
  "devdoc": {
    "kind": "dev",
    "methods": {
      "constructor": {
        "details": "initial owner of contract"
      },
      "finalizeBid(uint256)": {
        "details": "finalizeBid is used to award the bid by passing an argument of the index of the bid, It is a payable function, the sender of the call passes some ether to the contract the bidAmount is sent to the chosen bidder, and the balance is sent back to the  manager of the tender."
      },
      "tender(string,address)": {
        "details": "tender() creates new tenders in  tender Factory",
        "params": {
          "creator": "- address of tender creator create new instance of the tender contract.",
          "description": "- details of tender demands"
        }
      }
    },
    "stateVariables": {
      "bids": {
        "details": "bids - array of bidders idhiddenBids - array of bids with address to mitigate baiswinner - finalized bidder winIndex - id of winner in bid[i]"
      }
    },
    "version": 1
  },
  "evm": {
    "assembly": "    /* \"tender.sol\":243:5971  contract Tender {... */\n  mstore(0x40, 0x80)\n    /* \"tender.sol\":1995:2059  constructor()  {... */\n  callvalue\n  dup1\n  iszero\n  tag_1\n  jumpi\n  0x00\n  dup1\n  revert\ntag_1:\n  pop\n    /* \"tender.sol\":2021:2028  manager */\n  0x01\n    /* \"tender.sol\":2021:2051  manager = payable (msg.sender) */\n  dup1\n  sload\n  not(sub(shl(0xa0, 0x01), 0x01))\n  and\n    /* \"tender.sol\":2040:2050  msg.sender */\n  caller\n    /* \"tender.sol\":2021:2051  manager = payable (msg.sender) */\n  or\n  swap1\n  sstore\n    /* \"tender.sol\":243:5971  contract Tender {... */\n  dataSize(sub_0)\n  dup1\n  dataOffset(sub_0)\n  0x00\n  codecopy\n  0x00\n  return\nstop\n\nsub_0: assembly {\n        /* \"tender.sol\":243:5971  contract Tender {... */\n      mstore(0x40, 0x80)\n      jumpi(tag_1, lt(calldatasize, 0x04))\n      shr(0xe0, calldataload(0x00))\n      dup1\n      0x4281cebf\n      gt\n      tag_21\n      jumpi\n      dup1\n      0x8e4d5053\n      gt\n      tag_22\n      jumpi\n      dup1\n      0xcb6cbe8f\n      gt\n      tag_23\n      jumpi\n      dup1\n      0xcb6cbe8f\n      eq\n      tag_18\n      jumpi\n      dup1\n      0xdfbf53ae\n      eq\n      tag_19\n      jumpi\n      dup1\n      0xf82e1552\n      eq\n      tag_20\n      jumpi\n      0x00\n      dup1\n      revert\n    tag_23:\n      dup1\n      0x8e4d5053\n      eq\n      tag_16\n      jumpi\n      dup1\n      0xc8f17094\n      eq\n      tag_17\n      jumpi\n      0x00\n      dup1\n      revert\n    tag_22:\n      dup1\n      0x522e1177\n      gt\n      tag_24\n      jumpi\n      dup1\n      0x522e1177\n      eq\n      tag_13\n      jumpi\n      dup1\n      0x5d73753f\n      eq\n      tag_14\n      jumpi\n      dup1\n      0x73d4a13a\n      eq\n      tag_15\n      jumpi\n      0x00\n      dup1\n      revert\n    tag_24:\n      dup1\n      0x4281cebf\n      eq\n      tag_11\n      jumpi\n      dup1\n      0x481c6a75\n      eq\n      tag_12\n      jumpi\n      0x00\n      dup1\n      revert\n    tag_21:\n      dup1\n      0x200d2ed2\n      gt\n      tag_25\n      jumpi\n      dup1\n      0x2a4230e2\n      gt\n      tag_26\n      jumpi\n      dup1\n      0x2a4230e2\n      eq\n      tag_8\n      jumpi\n      dup1\n      0x2d196a8e\n      eq\n      tag_9\n      jumpi\n      dup1\n      0x4051ddac\n      eq\n      tag_10\n      jumpi\n      0x00\n      dup1\n      revert\n    tag_26:\n      dup1\n      0x200d2ed2\n      eq\n      tag_6\n      jumpi\n      dup1\n      0x28f6a48a\n      eq\n      tag_7\n      jumpi\n      0x00\n      dup1\n      revert\n    tag_25:\n      dup1\n      0x0a46572f\n      eq\n      tag_2\n      jumpi\n      dup1\n      0x10d2f82f\n      eq\n      tag_3\n      jumpi\n      dup1\n      0x164e68de\n      eq\n      tag_4\n      jumpi\n      dup1\n      0x1e1769ed\n      eq\n      tag_5\n      jumpi\n    tag_1:\n      0x00\n      dup1\n      revert\n        /* \"tender.sol\":1479:1502  uint256 public winIndex */\n    tag_2:\n      callvalue\n      dup1\n      iszero\n      tag_27\n      jumpi\n      0x00\n      dup1\n      revert\n    tag_27:\n      pop\n      tag_28\n      sload(0x07)\n      dup2\n      jump\n    tag_28:\n      mload(0x40)\n        /* \"#utility.yul\":160:185   */\n      swap1\n      dup2\n      mstore\n        /* \"#utility.yul\":148:150   */\n      0x20\n        /* \"#utility.yul\":133:151   */\n      add\n        /* \"tender.sol\":1479:1502  uint256 public winIndex */\n    tag_30:\n      mload(0x40)\n      dup1\n      swap2\n      sub\n      swap1\n      return\n        /* \"tender.sol\":5511:5609  function verifyManager() public view returns (bool) {... */\n    tag_3:\n      callvalue\n      dup1\n      iszero\n      tag_32\n      jumpi\n      0x00\n      dup1\n      revert\n    tag_32:\n      pop\n      tag_33\n        /* \"tender.sol\":5581:5588  manager */\n      and(sub(shl(0xa0, 0x01), 0x01), sload(0x01))\n        /* \"tender.sol\":5590:5600  msg.sender */\n      caller\n        /* \"tender.sol\":5581:5600  manager==msg.sender */\n      eq\n      swap1\n        /* \"tender.sol\":5511:5609  function verifyManager() public view returns (bool) {... */\n      jump\n    tag_33:\n      mload(0x40)\n        /* \"#utility.yul\":361:375   */\n      swap1\n      iszero\n        /* \"#utility.yul\":354:376   */\n      iszero\n        /* \"#utility.yul\":336:377   */\n      dup2\n      mstore\n        /* \"#utility.yul\":324:326   */\n      0x20\n        /* \"#utility.yul\":309:327   */\n      add\n        /* \"tender.sol\":5511:5609  function verifyManager() public view returns (bool) {... */\n      tag_30\n        /* \"#utility.yul\":196:383   */\n      jump\n        /* \"tender.sol\":4912:5037  function withdrawFees(address payable reciever) public onlyowner(){... */\n    tag_4:\n      callvalue\n      dup1\n      iszero\n      tag_37\n      jumpi\n      0x00\n      dup1\n      revert\n    tag_37:\n      pop\n      tag_38\n      tag_39\n      calldatasize\n      0x04\n      tag_40\n      jump\t// in\n    tag_39:\n      tag_41\n      jump\t// in\n    tag_38:\n      stop\n        /* \"tender.sol\":4512:4904  function payBid(uint256 _amt) external payable {... */\n    tag_5:\n      tag_38\n      tag_43\n      calldatasize\n      0x04\n      tag_44\n      jump\t// in\n    tag_43:\n      tag_45\n      jump\t// in\n        /* \"tender.sol\":5621:5857  function status() public view returns(string memory, bool, string memory, bool)... */\n    tag_6:\n      callvalue\n      dup1\n      iszero\n      tag_46\n      jumpi\n      0x00\n      dup1\n      revert\n    tag_46:\n      pop\n        /* \"tender.sol\":5717:5751  string memory stats = \"complete: \" */\n      0x40\n      dup1\n      mload\n      dup1\n      dup3\n      add\n      dup3\n      mstore\n      0x0a\n      dup2\n      mstore\n      0x636f6d706c6574653a2000000000000000000000000000000000000000000000\n      0x20\n      dup1\n      dup4\n      add\n      swap2\n      swap1\n      swap2\n      mstore\n        /* \"tender.sol\":5762:5796  string memory stats2 = \"Awating: \" */\n      dup3\n      mload\n      dup1\n      dup5\n      add\n      swap1\n      swap4\n      mstore\n      0x09\n      dup4\n      mstore\n      0x41776174696e673a200000000000000000000000000000000000000000000000\n      swap1\n      dup4\n      add\n      mstore\n        /* \"tender.sol\":5822:5830  complete */\n      sload(0x01)\n        /* \"tender.sol\":5717:5751  string memory stats = \"complete: \" */\n      swap1\n      swap2\n        /* \"tender.sol\":5822:5830  complete */\n      0xff\n      shl(0xa8, 0x01)\n      dup4\n      div\n      dup2\n      and\n      swap3\n      shl(0xa0, 0x01)\n        /* \"tender.sol\":5840:5848  awaiting */\n      swap1\n      div\n      and\n        /* \"tender.sol\":5621:5857  function status() public view returns(string memory, bool, string memory, bool)... */\n      mload(0x40)\n      tag_30\n      swap5\n      swap4\n      swap3\n      swap2\n      swap1\n      tag_50\n      jump\t// in\n        /* \"tender.sol\":5410:5497  function getBidCount() public view returns (uint) {... */\n    tag_7:\n      callvalue\n      dup1\n      iszero\n      tag_51\n      jumpi\n      0x00\n      dup1\n      revert\n    tag_51:\n      pop\n        /* \"tender.sol\":5478:5482  bids */\n      0x02\n        /* \"tender.sol\":5478:5489  bids.length */\n      sload\n        /* \"tender.sol\":5410:5497  function getBidCount() public view returns (uint) {... */\n      jump(tag_28)\n        /* \"tender.sol\":3272:3911  function makeBid(uint256 bidAmount, string memory desc)  public... */\n    tag_8:\n      callvalue\n      dup1\n      iszero\n      tag_55\n      jumpi\n      0x00\n      dup1\n      revert\n    tag_55:\n      pop\n      tag_38\n      tag_57\n      calldatasize\n      0x04\n      tag_58\n      jump\t// in\n    tag_57:\n      tag_59\n      jump\t// in\n        /* \"tender.sol\":2414:2616  function tender(string memory description, address payable creator) public virtual... */\n    tag_9:\n      callvalue\n      dup1\n      iszero\n      tag_60\n      jumpi\n      0x00\n      dup1\n      revert\n    tag_60:\n      pop\n      tag_38\n      tag_62\n      calldatasize\n      0x04\n      tag_63\n      jump\t// in\n    tag_62:\n      tag_64\n      jump\t// in\n        /* \"tender.sol\":5260:5404  function getSummary() public view returns (address, string memory, uint) {... */\n    tag_10:\n      callvalue\n      dup1\n      iszero\n      tag_65\n      jumpi\n      0x00\n      dup1\n      revert\n    tag_65:\n      pop\n      tag_66\n      tag_67\n      jump\t// in\n    tag_66:\n      mload(0x40)\n      tag_30\n      swap4\n      swap3\n      swap2\n      swap1\n      tag_69\n      jump\t// in\n        /* \"tender.sol\":5045:5252  function recievePay() public onlyowner() {... */\n    tag_11:\n      callvalue\n      dup1\n      iszero\n      tag_70\n      jumpi\n      0x00\n      dup1\n      revert\n    tag_70:\n      pop\n      tag_38\n      tag_72\n      jump\t// in\n        /* \"tender.sol\":380:410  address payable public manager */\n    tag_12:\n      callvalue\n      dup1\n      iszero\n      tag_73\n      jumpi\n      0x00\n      dup1\n      revert\n    tag_73:\n      pop\n      sload(0x01)\n      tag_74\n      swap1\n      sub(shl(0xa0, 0x01), 0x01)\n      and\n      dup2\n      jump\n    tag_74:\n      mload(0x40)\n      sub(shl(0xa0, 0x01), 0x01)\n        /* \"#utility.yul\":4233:4288   */\n      swap1\n      swap2\n      and\n        /* \"#utility.yul\":4215:4289   */\n      dup2\n      mstore\n        /* \"#utility.yul\":4203:4205   */\n      0x20\n        /* \"#utility.yul\":4188:4206   */\n      add\n        /* \"tender.sol\":380:410  address payable public manager */\n      tag_30\n        /* \"#utility.yul\":4053:4295   */\n      jump\n        /* \"tender.sol\":444:464  bool public complete */\n    tag_13:\n      callvalue\n      dup1\n      iszero\n      tag_78\n      jumpi\n      0x00\n      dup1\n      revert\n    tag_78:\n      pop\n      sload(0x01)\n      tag_33\n      swap1\n      shl(0xa8, 0x01)\n      swap1\n      div\n      0xff\n      and\n      dup2\n      jump\n        /* \"tender.sol\":417:437  bool public awaiting */\n    tag_14:\n      callvalue\n      dup1\n      iszero\n      tag_82\n      jumpi\n      0x00\n      dup1\n      revert\n    tag_82:\n      pop\n      sload(0x01)\n      tag_33\n      swap1\n      shl(0xa0, 0x01)\n      swap1\n      div\n      0xff\n      and\n      dup2\n      jump\n        /* \"tender.sol\":323:341  string public data */\n    tag_15:\n      callvalue\n      dup1\n      iszero\n      tag_86\n      jumpi\n      0x00\n      dup1\n      revert\n    tag_86:\n      pop\n      tag_87\n      tag_88\n      jump\t// in\n    tag_87:\n      mload(0x40)\n      tag_30\n      swap2\n      swap1\n      tag_90\n      jump\t// in\n        /* \"tender.sol\":5865:5968  function getcontractBalance() public view returns (uint){... */\n    tag_16:\n      callvalue\n      dup1\n      iszero\n      tag_91\n      jumpi\n      0x00\n      dup1\n      revert\n    tag_91:\n      pop\n        /* \"tender.sol\":5939:5960  address(this).balance */\n      selfbalance\n        /* \"tender.sol\":5865:5968  function getcontractBalance() public view returns (uint){... */\n      jump(tag_28)\n        /* \"tender.sol\":1419:1448  hiddenBid[] public hiddenBids */\n    tag_17:\n      callvalue\n      dup1\n      iszero\n      tag_95\n      jumpi\n      0x00\n      dup1\n      revert\n    tag_95:\n      pop\n      tag_96\n      tag_97\n      calldatasize\n      0x04\n      tag_44\n      jump\t// in\n    tag_97:\n      tag_98\n      jump\t// in\n    tag_96:\n      mload(0x40)\n      tag_30\n      swap4\n      swap3\n      swap2\n      swap1\n      tag_100\n      jump\t// in\n        /* \"tender.sol\":4236:4500  function finalizeBid(uint index) public onlyowner() {... */\n    tag_18:\n      callvalue\n      dup1\n      iszero\n      tag_101\n      jumpi\n      0x00\n      dup1\n      revert\n    tag_101:\n      pop\n      tag_38\n      tag_103\n      calldatasize\n      0x04\n      tag_44\n      jump\t// in\n    tag_103:\n      tag_104\n      jump\t// in\n        /* \"tender.sol\":1455:1472  Bid public winner */\n    tag_19:\n      callvalue\n      dup1\n      iszero\n      tag_105\n      jumpi\n      0x00\n      dup1\n      revert\n    tag_105:\n      pop\n      tag_106\n      tag_107\n      jump\t// in\n    tag_106:\n      mload(0x40)\n      tag_30\n      swap4\n      swap3\n      swap2\n      swap1\n      tag_109\n      jump\t// in\n        /* \"tender.sol\":2807:3029  function getBidSummary(uint index) public view returns (address, uint, string memory) {... */\n    tag_20:\n      callvalue\n      dup1\n      iszero\n      tag_110\n      jumpi\n      0x00\n      dup1\n      revert\n    tag_110:\n      pop\n      tag_106\n      tag_112\n      calldatasize\n      0x04\n      tag_44\n      jump\t// in\n    tag_112:\n      tag_113\n      jump\t// in\n        /* \"tender.sol\":4912:5037  function withdrawFees(address payable reciever) public onlyowner(){... */\n    tag_41:\n        /* \"tender.sol\":2124:2131  manager */\n      and(sub(shl(0xa0, 0x01), 0x01), sload(0x01))\n        /* \"tender.sol\":2112:2122  msg.sender */\n      caller\n        /* \"tender.sol\":2112:2131  msg.sender==manager */\n      eq\n        /* \"tender.sol\":2104:2148  require(msg.sender==manager,\"Access Denied\") */\n      tag_117\n      jumpi\n      mload(0x40)\n      shl(0xe5, 0x461bcd)\n      dup2\n      mstore\n        /* \"#utility.yul\":5510:5512   */\n      0x20\n        /* \"tender.sol\":2104:2148  require(msg.sender==manager,\"Access Denied\") */\n      0x04\n      dup3\n      add\n        /* \"#utility.yul\":5492:5513   */\n      mstore\n        /* \"#utility.yul\":5549:5551   */\n      0x0d\n        /* \"#utility.yul\":5529:5547   */\n      0x24\n      dup3\n      add\n        /* \"#utility.yul\":5522:5552   */\n      mstore\n      shl(0x9a, 0x1058d8d95cdcc811195b9a5959)\n        /* \"#utility.yul\":5568:5586   */\n      0x44\n      dup3\n      add\n        /* \"#utility.yul\":5561:5604   */\n      mstore\n        /* \"#utility.yul\":5621:5639   */\n      0x64\n      add\n        /* \"tender.sol\":2104:2148  require(msg.sender==manager,\"Access Denied\") */\n    tag_118:\n      mload(0x40)\n      dup1\n      swap2\n      sub\n      swap1\n      revert\n    tag_117:\n        /* \"tender.sol\":4989:5029  reciever.transfer(address(this).balance) */\n      mload(0x40)\n      sub(shl(0xa0, 0x01), 0x01)\n        /* \"tender.sol\":4989:5006  reciever.transfer */\n      dup3\n      and\n      swap1\n        /* \"tender.sol\":5007:5028  address(this).balance */\n      selfbalance\n        /* \"tender.sol\":4989:5029  reciever.transfer(address(this).balance) */\n      dup1\n      iszero\n      0x08fc\n      mul\n      swap2\n      0x00\n      dup2\n      dup2\n      dup2\n        /* \"tender.sol\":5007:5028  address(this).balance */\n      dup6\n        /* \"tender.sol\":4989:5006  reciever.transfer */\n      dup9\n        /* \"tender.sol\":4989:5029  reciever.transfer(address(this).balance) */\n      dup9\n      call\n      swap4\n      pop\n      pop\n      pop\n      pop\n      iszero\n      dup1\n      iszero\n      tag_122\n      jumpi\n      returndatasize\n      0x00\n      dup1\n      returndatacopy\n      revert(0x00, returndatasize)\n    tag_122:\n      pop\n        /* \"tender.sol\":4912:5037  function withdrawFees(address payable reciever) public onlyowner(){... */\n      pop\n      jump\t// out\n        /* \"tender.sol\":4512:4904  function payBid(uint256 _amt) external payable {... */\n    tag_45:\n        /* \"tender.sol\":4592:4598  winner */\n      0x04\n        /* \"tender.sol\":4592:4605  winner.bidder */\n      sload\n      sub(shl(0xa0, 0x01), 0x01)\n      and\n        /* \"tender.sol\":4578:4588  msg.sender */\n      caller\n        /* \"tender.sol\":4578:4605  msg.sender == winner.bidder */\n      eq\n        /* \"tender.sol\":4570:4631  require(msg.sender == winner.bidder, \"Not authorized bidder\") */\n      tag_124\n      jumpi\n      mload(0x40)\n      shl(0xe5, 0x461bcd)\n      dup2\n      mstore\n        /* \"#utility.yul\":5852:5854   */\n      0x20\n        /* \"tender.sol\":4570:4631  require(msg.sender == winner.bidder, \"Not authorized bidder\") */\n      0x04\n      dup3\n      add\n        /* \"#utility.yul\":5834:5855   */\n      mstore\n        /* \"#utility.yul\":5891:5893   */\n      0x15\n        /* \"#utility.yul\":5871:5889   */\n      0x24\n      dup3\n      add\n        /* \"#utility.yul\":5864:5894   */\n      mstore\n        /* \"#utility.yul\":5930:5953   */\n      0x4e6f7420617574686f72697a6564206269646465720000000000000000000000\n        /* \"#utility.yul\":5910:5928   */\n      0x44\n      dup3\n      add\n        /* \"#utility.yul\":5903:5954   */\n      mstore\n        /* \"#utility.yul\":5971:5989   */\n      0x64\n      add\n        /* \"tender.sol\":4570:4631  require(msg.sender == winner.bidder, \"Not authorized bidder\") */\n      tag_118\n        /* \"#utility.yul\":5650:5995   */\n      jump\n        /* \"tender.sol\":4570:4631  require(msg.sender == winner.bidder, \"Not authorized bidder\") */\n    tag_124:\n        /* \"tender.sol\":4663:4673  bid_amount */\n      sload(0x08)\n        /* \"tender.sol\":4650:4659  msg.value */\n      callvalue\n        /* \"tender.sol\":4650:4673  msg.value >= bid_amount */\n      lt\n      iszero\n        /* \"tender.sol\":4642:4697  require(msg.value >= bid_amount, \"insufficient funds!\") */\n      tag_127\n      jumpi\n      mload(0x40)\n      shl(0xe5, 0x461bcd)\n      dup2\n      mstore\n        /* \"#utility.yul\":6202:6204   */\n      0x20\n        /* \"tender.sol\":4642:4697  require(msg.value >= bid_amount, \"insufficient funds!\") */\n      0x04\n      dup3\n      add\n        /* \"#utility.yul\":6184:6205   */\n      mstore\n        /* \"#utility.yul\":6241:6243   */\n      0x13\n        /* \"#utility.yul\":6221:6239   */\n      0x24\n      dup3\n      add\n        /* \"#utility.yul\":6214:6244   */\n      mstore\n        /* \"#utility.yul\":6280:6301   */\n      0x696e73756666696369656e742066756e64732100000000000000000000000000\n        /* \"#utility.yul\":6260:6278   */\n      0x44\n      dup3\n      add\n        /* \"#utility.yul\":6253:6302   */\n      mstore\n        /* \"#utility.yul\":6319:6337   */\n      0x64\n      add\n        /* \"tender.sol\":4642:4697  require(msg.value >= bid_amount, \"insufficient funds!\") */\n      tag_118\n        /* \"#utility.yul\":6000:6343   */\n      jump\n        /* \"tender.sol\":4642:4697  require(msg.value >= bid_amount, \"insufficient funds!\") */\n    tag_127:\n        /* \"tender.sol\":4720:4730  bid_amount */\n      sload(0x08)\n        /* \"tender.sol\":4712:4716  _amt */\n      dup2\n        /* \"tender.sol\":4712:4730  _amt != bid_amount */\n      eq\n        /* \"tender.sol\":4708:4796  if (_amt != bid_amount){... */\n      tag_130\n      jumpi\n        /* \"tender.sol\":4746:4784  revert(\"value is not what was agreed\") */\n      mload(0x40)\n      shl(0xe5, 0x461bcd)\n      dup2\n      mstore\n        /* \"#utility.yul\":6550:6552   */\n      0x20\n        /* \"tender.sol\":4746:4784  revert(\"value is not what was agreed\") */\n      0x04\n      dup3\n      add\n        /* \"#utility.yul\":6532:6553   */\n      mstore\n        /* \"#utility.yul\":6589:6591   */\n      0x1c\n        /* \"#utility.yul\":6569:6587   */\n      0x24\n      dup3\n      add\n        /* \"#utility.yul\":6562:6592   */\n      mstore\n        /* \"#utility.yul\":6628:6658   */\n      0x76616c7565206973206e6f742077686174207761732061677265656400000000\n        /* \"#utility.yul\":6608:6626   */\n      0x44\n      dup3\n      add\n        /* \"#utility.yul\":6601:6659   */\n      mstore\n        /* \"#utility.yul\":6676:6694   */\n      0x64\n      add\n        /* \"tender.sol\":4746:4784  revert(\"value is not what was agreed\") */\n      tag_118\n        /* \"#utility.yul\":6348:6700   */\n      jump\n        /* \"tender.sol\":4708:4796  if (_amt != bid_amount){... */\n    tag_130:\n        /* \"tender.sol\":4806:4814  awaiting */\n      0x01\n        /* \"tender.sol\":4806:4822  awaiting = false */\n      dup1\n      sload\n        /* \"tender.sol\":4833:4848  complete = true */\n      0xffffffffffffffffffff0000ffffffffffffffffffffffffffffffffffffffff\n      and\n      shl(0xa8, 0x01)\n      or\n      swap1\n      sstore\n        /* \"tender.sol\":4864:4896  done(msg.sender, \"Payment made\") */\n      mload(0x40)\n        /* \"tender.sol\":4869:4879  msg.sender */\n      caller\n      swap1\n        /* \"tender.sol\":4864:4896  done(msg.sender, \"Payment made\") */\n      0xddb3e8e092f582b287e510e57287106c0231b91b97d25c5872442924378808e9\n      swap1\n      tag_133\n      swap1\n        /* \"#utility.yul\":6907:6909   */\n      0x20\n        /* \"#utility.yul\":6889:6910   */\n      dup1\n      dup3\n      mstore\n        /* \"#utility.yul\":6946:6948   */\n      0x0c\n        /* \"#utility.yul\":6926:6944   */\n      swap1\n      dup3\n      add\n        /* \"#utility.yul\":6919:6949   */\n      mstore\n        /* \"#utility.yul\":6985:6999   */\n      0x5061796d656e74206d6164650000000000000000000000000000000000000000\n        /* \"#utility.yul\":6980:6982   */\n      0x40\n        /* \"#utility.yul\":6965:6983   */\n      dup3\n      add\n        /* \"#utility.yul\":6958:7000   */\n      mstore\n        /* \"#utility.yul\":7032:7034   */\n      0x60\n        /* \"#utility.yul\":7017:7035   */\n      add\n      swap1\n        /* \"#utility.yul\":6705:7041   */\n      jump\n        /* \"tender.sol\":4864:4896  done(msg.sender, \"Payment made\") */\n    tag_133:\n      mload(0x40)\n      dup1\n      swap2\n      sub\n      swap1\n      log2\n        /* \"tender.sol\":4512:4904  function payBid(uint256 _amt) external payable {... */\n      pop\n      jump\t// out\n        /* \"tender.sol\":3272:3911  function makeBid(uint256 bidAmount, string memory desc)  public... */\n    tag_59:\n        /* \"tender.sol\":3366:3373  manager */\n      and(sub(shl(0xa0, 0x01), 0x01), sload(0x01))\n        /* \"tender.sol\":3354:3364  msg.sender */\n      caller\n        /* \"tender.sol\":3354:3373  msg.sender==manager */\n      sub\n        /* \"tender.sol\":3344:3375  require(!(msg.sender==manager)) */\n      tag_138\n      jumpi\n      0x00\n      dup1\n      revert\n    tag_138:\n        /* \"tender.sol\":3394:3402  complete */\n      sload(0x01)\n      shl(0xa8, 0x01)\n      swap1\n      div\n      0xff\n      and\n        /* \"tender.sol\":3393:3402  !complete */\n      iszero\n        /* \"tender.sol\":3385:3403  require(!complete) */\n      tag_139\n      jumpi\n      0x00\n      dup1\n      revert\n    tag_139:\n        /* \"tender.sol\":3443:3554  Bid({... */\n      0x40\n      dup1\n      mload\n      0x60\n      dup2\n      add\n      dup3\n      mstore\n        /* \"tender.sol\":3471:3481  msg.sender */\n      caller\n        /* \"tender.sol\":3443:3554  Bid({... */\n      dup2\n      mstore\n      0x20\n      dup2\n      add\n      dup5\n      dup2\n      mstore\n      swap2\n      dup2\n      add\n      dup4\n      dup2\n      mstore\n        /* \"tender.sol\":3565:3569  bids */\n      0x02\n        /* \"tender.sol\":3565:3582  bids.push(newBid) */\n      dup1\n      sload\n      0x01\n      dup2\n      add\n      dup3\n      sstore\n      0x00\n      swap2\n      swap1\n      swap2\n      mstore\n      dup3\n      mload\n      0x405787fa12a823e0f2b7631cc41b3ba8828b3321ca811111fa75cd3aa3bb5ace\n      0x03\n      swap1\n      swap3\n      mul\n      swap2\n      dup3\n      add\n      dup1\n      sload\n      not(0xffffffffffffffffffffffffffffffffffffffff)\n      and\n      sub(shl(0xa0, 0x01), 0x01)\n      swap1\n      swap3\n      and\n      swap2\n      swap1\n      swap2\n      or\n      dup2\n      sstore\n      swap4\n      mload\n      0x405787fa12a823e0f2b7631cc41b3ba8828b3321ca811111fa75cd3aa3bb5acf\n      dup3\n      add\n      sstore\n      swap1\n      mload\n        /* \"tender.sol\":3443:3554  Bid({... */\n      swap2\n      swap3\n      dup4\n      swap3\n        /* \"tender.sol\":3565:3582  bids.push(newBid) */\n      swap1\n      swap2\n      0x405787fa12a823e0f2b7631cc41b3ba8828b3321ca811111fa75cd3aa3bb5ad0\n      add\n      swap1\n      tag_141\n      swap1\n      dup3\n      tag_142\n      jump\t// in\n    tag_141:\n      pop\n      pop\n        /* \"tender.sol\":3625:3767  hiddenBid({... */\n      0x40\n      dup1\n      mload\n      0x60\n      dup2\n      add\n      dup3\n      mstore\n        /* \"tender.sol\":3655:3659  bids */\n      0x02\n        /* \"tender.sol\":3655:3666  bids.length */\n      sload\n        /* \"tender.sol\":3625:3767  hiddenBid({... */\n      dup2\n      mstore\n      0x20\n      dup2\n      add\n      dup7\n      dup2\n      mstore\n      swap2\n      dup2\n      add\n      dup6\n      dup2\n      mstore\n        /* \"tender.sol\":3778:3788  hiddenBids */\n      0x03\n        /* \"tender.sol\":3778:3807  hiddenBids.push(newhiddenBid) */\n      dup1\n      sload\n      0x01\n      dup2\n      add\n      dup3\n      sstore\n        /* \"tender.sol\":3593:3622  hiddenBid memory newhiddenBid */\n      0x00\n        /* \"tender.sol\":3778:3807  hiddenBids.push(newhiddenBid) */\n      dup3\n      swap1\n      mstore\n      dup4\n      mload\n      swap2\n      mul\n      0xc2575a0e9e593c00f959f8c92f12db2869c3395a3b0502d05e2516446f71f85b\n      dup2\n      add\n      swap2\n      dup3\n      sstore\n      swap4\n      mload\n      0xc2575a0e9e593c00f959f8c92f12db2869c3395a3b0502d05e2516446f71f85c\n      dup6\n      add\n      sstore\n      swap1\n      mload\n        /* \"tender.sol\":3625:3767  hiddenBid({... */\n      swap2\n      swap4\n      pop\n      dup4\n      swap3\n        /* \"tender.sol\":3778:3807  hiddenBids.push(newhiddenBid) */\n      swap1\n      swap2\n      0xc2575a0e9e593c00f959f8c92f12db2869c3395a3b0502d05e2516446f71f85d\n      swap1\n      swap2\n      add\n      swap1\n      tag_144\n      swap1\n      dup3\n      tag_142\n      jump\t// in\n    tag_144:\n      pop\n      pop\n      pop\n        /* \"tender.sol\":3872:3882  msg.sender */\n      caller\n      sub(shl(0xa0, 0x01), 0x01)\n        /* \"tender.sol\":3867:3903  done(msg.sender,\"Created a new bid\") */\n      and\n      0xddb3e8e092f582b287e510e57287106c0231b91b97d25c5872442924378808e9\n      mload(0x40)\n      tag_145\n      swap1\n        /* \"#utility.yul\":9837:9839   */\n      0x20\n        /* \"#utility.yul\":9819:9840   */\n      dup1\n      dup3\n      mstore\n        /* \"#utility.yul\":9876:9878   */\n      0x11\n        /* \"#utility.yul\":9856:9874   */\n      swap1\n      dup3\n      add\n        /* \"#utility.yul\":9849:9879   */\n      mstore\n        /* \"#utility.yul\":9915:9934   */\n      0x437265617465642061206e657720626964000000000000000000000000000000\n        /* \"#utility.yul\":9910:9912   */\n      0x40\n        /* \"#utility.yul\":9895:9913   */\n      dup3\n      add\n        /* \"#utility.yul\":9888:9935   */\n      mstore\n        /* \"#utility.yul\":9967:9969   */\n      0x60\n        /* \"#utility.yul\":9952:9970   */\n      add\n      swap1\n        /* \"#utility.yul\":9635:9976   */\n      jump\n        /* \"tender.sol\":3867:3903  done(msg.sender,\"Created a new bid\") */\n    tag_145:\n      mload(0x40)\n      dup1\n      swap2\n      sub\n      swap1\n      log2\n        /* \"tender.sol\":3341:3911  {  require(!(msg.sender==manager));... */\n      pop\n      pop\n        /* \"tender.sol\":3272:3911  function makeBid(uint256 bidAmount, string memory desc)  public... */\n      pop\n      pop\n      jump\t// out\n        /* \"tender.sol\":2414:2616  function tender(string memory description, address payable creator) public virtual... */\n    tag_64:\n        /* \"tender.sol\":2513:2520  manager */\n      0x01\n        /* \"tender.sol\":2513:2530  manager = creator */\n      dup1\n      sload\n      not(0xffffffffffffffffffffffffffffffffffffffff)\n      and\n      sub(shl(0xa0, 0x01), 0x01)\n      dup4\n      and\n      or\n      swap1\n      sstore\n      0x00\n        /* \"tender.sol\":2541:2559  data = description */\n      tag_148\n        /* \"tender.sol\":2548:2559  description */\n      dup4\n      dup3\n        /* \"tender.sol\":2541:2559  data = description */\n      tag_142\n      jump\t// in\n    tag_148:\n      pop\n        /* \"tender.sol\":2580:2587  manager */\n      sload(0x01)\n        /* \"tender.sol\":2575:2608  done(manager, \"Created a tender\") */\n      mload(0x40)\n      sub(shl(0xa0, 0x01), 0x01)\n        /* \"tender.sol\":2580:2587  manager */\n      swap1\n      swap2\n      and\n      swap1\n        /* \"tender.sol\":2575:2608  done(manager, \"Created a tender\") */\n      0xddb3e8e092f582b287e510e57287106c0231b91b97d25c5872442924378808e9\n      swap1\n      tag_149\n      swap1\n        /* \"#utility.yul\":10183:10185   */\n      0x20\n        /* \"#utility.yul\":10165:10186   */\n      dup1\n      dup3\n      mstore\n        /* \"#utility.yul\":10222:10224   */\n      0x10\n        /* \"#utility.yul\":10202:10220   */\n      swap1\n      dup3\n      add\n        /* \"#utility.yul\":10195:10225   */\n      mstore\n        /* \"#utility.yul\":10261:10279   */\n      0x4372656174656420612074656e64657200000000000000000000000000000000\n        /* \"#utility.yul\":10256:10258   */\n      0x40\n        /* \"#utility.yul\":10241:10259   */\n      dup3\n      add\n        /* \"#utility.yul\":10234:10280   */\n      mstore\n        /* \"#utility.yul\":10312:10314   */\n      0x60\n        /* \"#utility.yul\":10297:10315   */\n      add\n      swap1\n        /* \"#utility.yul\":9981:10321   */\n      jump\n        /* \"tender.sol\":2575:2608  done(manager, \"Created a tender\") */\n    tag_149:\n      mload(0x40)\n      dup1\n      swap2\n      sub\n      swap1\n      log2\n        /* \"tender.sol\":2414:2616  function tender(string memory description, address payable creator) public virtual... */\n      pop\n      pop\n      jump\t// out\n        /* \"tender.sol\":5260:5404  function getSummary() public view returns (address, string memory, uint) {... */\n    tag_67:\n        /* \"tender.sol\":5303:5310  address */\n      0x00\n        /* \"tender.sol\":5312:5325  string memory */\n      0x60\n        /* \"tender.sol\":5327:5331  uint */\n      0x00\n        /* \"tender.sol\":5351:5358  manager */\n      0x01\n      0x00\n      swap1\n      sload\n      swap1\n      0x0100\n      exp\n      swap1\n      div\n      sub(shl(0xa0, 0x01), 0x01)\n      and\n        /* \"tender.sol\":5369:5373  data */\n      0x00\n        /* \"tender.sol\":5384:5388  bids */\n      0x02\n        /* \"tender.sol\":5384:5395  bids.length */\n      dup1\n      sload\n      swap1\n      pop\n        /* \"tender.sol\":5344:5396  return(manager,... */\n      dup2\n      dup1\n      sload\n      tag_152\n      swap1\n      tag_153\n      jump\t// in\n    tag_152:\n      dup1\n      0x1f\n      add\n      0x20\n      dup1\n      swap2\n      div\n      mul\n      0x20\n      add\n      mload(0x40)\n      swap1\n      dup2\n      add\n      0x40\n      mstore\n      dup1\n      swap3\n      swap2\n      swap1\n      dup2\n      dup2\n      mstore\n      0x20\n      add\n      dup3\n      dup1\n      sload\n      tag_154\n      swap1\n      tag_153\n      jump\t// in\n    tag_154:\n      dup1\n      iszero\n      tag_155\n      jumpi\n      dup1\n      0x1f\n      lt\n      tag_156\n      jumpi\n      0x0100\n      dup1\n      dup4\n      sload\n      div\n      mul\n      dup4\n      mstore\n      swap2\n      0x20\n      add\n      swap2\n      jump(tag_155)\n    tag_156:\n      dup3\n      add\n      swap2\n      swap1\n      0x00\n      mstore\n      keccak256(0x00, 0x20)\n      swap1\n    tag_157:\n      dup2\n      sload\n      dup2\n      mstore\n      swap1\n      0x01\n      add\n      swap1\n      0x20\n      add\n      dup1\n      dup4\n      gt\n      tag_157\n      jumpi\n      dup3\n      swap1\n      sub\n      0x1f\n      and\n      dup3\n      add\n      swap2\n    tag_155:\n      pop\n      pop\n      pop\n      pop\n      pop\n      swap2\n      pop\n      swap3\n      pop\n      swap3\n      pop\n      swap3\n      pop\n        /* \"tender.sol\":5260:5404  function getSummary() public view returns (address, string memory, uint) {... */\n      swap1\n      swap2\n      swap3\n      jump\t// out\n        /* \"tender.sol\":5045:5252  function recievePay() public onlyowner() {... */\n    tag_72:\n        /* \"tender.sol\":2124:2131  manager */\n      and(sub(shl(0xa0, 0x01), 0x01), sload(0x01))\n        /* \"tender.sol\":2112:2122  msg.sender */\n      caller\n        /* \"tender.sol\":2112:2131  msg.sender==manager */\n      eq\n        /* \"tender.sol\":2104:2148  require(msg.sender==manager,\"Access Denied\") */\n      tag_159\n      jumpi\n      mload(0x40)\n      shl(0xe5, 0x461bcd)\n      dup2\n      mstore\n        /* \"#utility.yul\":5510:5512   */\n      0x20\n        /* \"tender.sol\":2104:2148  require(msg.sender==manager,\"Access Denied\") */\n      0x04\n      dup3\n      add\n        /* \"#utility.yul\":5492:5513   */\n      mstore\n        /* \"#utility.yul\":5549:5551   */\n      0x0d\n        /* \"#utility.yul\":5529:5547   */\n      0x24\n      dup3\n      add\n        /* \"#utility.yul\":5522:5552   */\n      mstore\n      shl(0x9a, 0x1058d8d95cdcc811195b9a5959)\n        /* \"#utility.yul\":5568:5586   */\n      0x44\n      dup3\n      add\n        /* \"#utility.yul\":5561:5604   */\n      mstore\n        /* \"#utility.yul\":5621:5639   */\n      0x64\n      add\n        /* \"tender.sol\":2104:2148  require(msg.sender==manager,\"Access Denied\") */\n      tag_118\n        /* \"#utility.yul\":5308:5645   */\n      jump\n        /* \"tender.sol\":2104:2148  require(msg.sender==manager,\"Access Denied\") */\n    tag_159:\n        /* \"tender.sol\":5139:5142  100 */\n      0x64\n        /* \"tender.sol\":5122:5132  bid_amount */\n      sload(0x08)\n        /* \"tender.sol\":5135:5136  3 */\n      0x03\n        /* \"tender.sol\":5122:5136  bid_amount * 3 */\n      tag_162\n      swap2\n      swap1\n      tag_163\n      jump\t// in\n    tag_162:\n        /* \"tender.sol\":5122:5142  bid_amount * 3 / 100 */\n      tag_164\n      swap2\n      swap1\n      tag_165\n      jump\t// in\n    tag_164:\n        /* \"tender.sol\":5097:5143  address(this).balance - (bid_amount * 3 / 100) */\n      tag_166\n      swap1\n        /* \"tender.sol\":5097:5118  address(this).balance */\n      selfbalance\n        /* \"tender.sol\":5097:5143  address(this).balance - (bid_amount * 3 / 100) */\n      tag_167\n      jump\t// in\n    tag_166:\n      pop\n        /* \"tender.sol\":5154:5161  manager */\n      sload(0x01)\n        /* \"tender.sol\":5154:5193  manager.transfer(address(this).balance) */\n      mload(0x40)\n      sub(shl(0xa0, 0x01), 0x01)\n        /* \"tender.sol\":5154:5161  manager */\n      swap1\n      swap2\n      and\n      swap1\n        /* \"tender.sol\":5171:5192  address(this).balance */\n      selfbalance\n        /* \"tender.sol\":5154:5193  manager.transfer(address(this).balance) */\n      dup1\n      iszero\n      0x08fc\n      mul\n      swap2\n        /* \"tender.sol\":5154:5161  manager */\n      0x00\n        /* \"tender.sol\":5154:5193  manager.transfer(address(this).balance) */\n      dup2\n        /* \"tender.sol\":5154:5161  manager */\n      dup2\n        /* \"tender.sol\":5154:5193  manager.transfer(address(this).balance) */\n      dup2\n        /* \"tender.sol\":5171:5192  address(this).balance */\n      dup6\n        /* \"tender.sol\":5154:5161  manager */\n      dup9\n        /* \"tender.sol\":5154:5193  manager.transfer(address(this).balance) */\n      dup9\n      call\n      swap4\n      pop\n      pop\n      pop\n      pop\n      iszero\n      dup1\n      iszero\n      tag_169\n      jumpi\n      returndatasize\n      0x00\n      dup1\n      returndatacopy\n      revert(0x00, returndatasize)\n    tag_169:\n      pop\n        /* \"tender.sol\":5214:5224  msg.sender */\n      caller\n      sub(shl(0xa0, 0x01), 0x01)\n        /* \"tender.sol\":5209:5244  done(msg.sender, \"Claimed payment\") */\n      and\n      0xddb3e8e092f582b287e510e57287106c0231b91b97d25c5872442924378808e9\n      mload(0x40)\n      tag_170\n      swap1\n        /* \"#utility.yul\":11188:11190   */\n      0x20\n        /* \"#utility.yul\":11170:11191   */\n      dup1\n      dup3\n      mstore\n        /* \"#utility.yul\":11227:11229   */\n      0x0f\n        /* \"#utility.yul\":11207:11225   */\n      swap1\n      dup3\n      add\n        /* \"#utility.yul\":11200:11230   */\n      mstore\n        /* \"#utility.yul\":11266:11283   */\n      0x436c61696d6564207061796d656e740000000000000000000000000000000000\n        /* \"#utility.yul\":11261:11263   */\n      0x40\n        /* \"#utility.yul\":11246:11264   */\n      dup3\n      add\n        /* \"#utility.yul\":11239:11284   */\n      mstore\n        /* \"#utility.yul\":11316:11318   */\n      0x60\n        /* \"#utility.yul\":11301:11319   */\n      add\n      swap1\n        /* \"#utility.yul\":10986:11325   */\n      jump\n        /* \"tender.sol\":5209:5244  done(msg.sender, \"Claimed payment\") */\n    tag_170:\n      mload(0x40)\n      dup1\n      swap2\n      sub\n      swap1\n      log2\n        /* \"tender.sol\":5045:5252  function recievePay() public onlyowner() {... */\n      jump\t// out\n        /* \"tender.sol\":323:341  string public data */\n    tag_88:\n      0x00\n      dup1\n      sload\n      tag_172\n      swap1\n      tag_153\n      jump\t// in\n    tag_172:\n      dup1\n      0x1f\n      add\n      0x20\n      dup1\n      swap2\n      div\n      mul\n      0x20\n      add\n      mload(0x40)\n      swap1\n      dup2\n      add\n      0x40\n      mstore\n      dup1\n      swap3\n      swap2\n      swap1\n      dup2\n      dup2\n      mstore\n      0x20\n      add\n      dup3\n      dup1\n      sload\n      tag_173\n      swap1\n      tag_153\n      jump\t// in\n    tag_173:\n      dup1\n      iszero\n      tag_174\n      jumpi\n      dup1\n      0x1f\n      lt\n      tag_175\n      jumpi\n      0x0100\n      dup1\n      dup4\n      sload\n      div\n      mul\n      dup4\n      mstore\n      swap2\n      0x20\n      add\n      swap2\n      jump(tag_174)\n    tag_175:\n      dup3\n      add\n      swap2\n      swap1\n      0x00\n      mstore\n      keccak256(0x00, 0x20)\n      swap1\n    tag_176:\n      dup2\n      sload\n      dup2\n      mstore\n      swap1\n      0x01\n      add\n      swap1\n      0x20\n      add\n      dup1\n      dup4\n      gt\n      tag_176\n      jumpi\n      dup3\n      swap1\n      sub\n      0x1f\n      and\n      dup3\n      add\n      swap2\n    tag_174:\n      pop\n      pop\n      pop\n      pop\n      pop\n      dup2\n      jump\t// out\n        /* \"tender.sol\":1419:1448  hiddenBid[] public hiddenBids */\n    tag_98:\n      0x03\n      dup2\n      dup2\n      sload\n      dup2\n      lt\n      tag_178\n      jumpi\n      0x00\n      dup1\n      revert\n    tag_178:\n      swap1\n      0x00\n      mstore\n      keccak256(0x00, 0x20)\n      swap1\n      0x03\n      mul\n      add\n      0x00\n      swap2\n      pop\n      swap1\n      pop\n      dup1\n      0x00\n      add\n      sload\n      swap1\n      dup1\n      0x01\n      add\n      sload\n      swap1\n      dup1\n      0x02\n      add\n      dup1\n      sload\n      tag_180\n      swap1\n      tag_153\n      jump\t// in\n    tag_180:\n      dup1\n      0x1f\n      add\n      0x20\n      dup1\n      swap2\n      div\n      mul\n      0x20\n      add\n      mload(0x40)\n      swap1\n      dup2\n      add\n      0x40\n      mstore\n      dup1\n      swap3\n      swap2\n      swap1\n      dup2\n      dup2\n      mstore\n      0x20\n      add\n      dup3\n      dup1\n      sload\n      tag_181\n      swap1\n      tag_153\n      jump\t// in\n    tag_181:\n      dup1\n      iszero\n      tag_182\n      jumpi\n      dup1\n      0x1f\n      lt\n      tag_183\n      jumpi\n      0x0100\n      dup1\n      dup4\n      sload\n      div\n      mul\n      dup4\n      mstore\n      swap2\n      0x20\n      add\n      swap2\n      jump(tag_182)\n    tag_183:\n      dup3\n      add\n      swap2\n      swap1\n      0x00\n      mstore\n      keccak256(0x00, 0x20)\n      swap1\n    tag_184:\n      dup2\n      sload\n      dup2\n      mstore\n      swap1\n      0x01\n      add\n      swap1\n      0x20\n      add\n      dup1\n      dup4\n      gt\n      tag_184\n      jumpi\n      dup3\n      swap1\n      sub\n      0x1f\n      and\n      dup3\n      add\n      swap2\n    tag_182:\n      pop\n      pop\n      pop\n      pop\n      pop\n      swap1\n      pop\n      dup4\n      jump\t// out\n        /* \"tender.sol\":4236:4500  function finalizeBid(uint index) public onlyowner() {... */\n    tag_104:\n        /* \"tender.sol\":2124:2131  manager */\n      and(sub(shl(0xa0, 0x01), 0x01), sload(0x01))\n        /* \"tender.sol\":2112:2122  msg.sender */\n      caller\n        /* \"tender.sol\":2112:2131  msg.sender==manager */\n      eq\n        /* \"tender.sol\":2104:2148  require(msg.sender==manager,\"Access Denied\") */\n      tag_186\n      jumpi\n      mload(0x40)\n      shl(0xe5, 0x461bcd)\n      dup2\n      mstore\n        /* \"#utility.yul\":5510:5512   */\n      0x20\n        /* \"tender.sol\":2104:2148  require(msg.sender==manager,\"Access Denied\") */\n      0x04\n      dup3\n      add\n        /* \"#utility.yul\":5492:5513   */\n      mstore\n        /* \"#utility.yul\":5549:5551   */\n      0x0d\n        /* \"#utility.yul\":5529:5547   */\n      0x24\n      dup3\n      add\n        /* \"#utility.yul\":5522:5552   */\n      mstore\n      shl(0x9a, 0x1058d8d95cdcc811195b9a5959)\n        /* \"#utility.yul\":5568:5586   */\n      0x44\n      dup3\n      add\n        /* \"#utility.yul\":5561:5604   */\n      mstore\n        /* \"#utility.yul\":5621:5639   */\n      0x64\n      add\n        /* \"tender.sol\":2104:2148  require(msg.sender==manager,\"Access Denied\") */\n      tag_118\n        /* \"#utility.yul\":5308:5645   */\n      jump\n        /* \"tender.sol\":2104:2148  require(msg.sender==manager,\"Access Denied\") */\n    tag_186:\n        /* \"tender.sol\":4308:4316  complete */\n      sload(0x01)\n      shl(0xa8, 0x01)\n      swap1\n      div\n      0xff\n      and\n        /* \"tender.sol\":4307:4316  !complete */\n      iszero\n        /* \"tender.sol\":4299:4317  require(!complete) */\n      tag_189\n      jumpi\n      0x00\n      dup1\n      revert\n    tag_189:\n        /* \"tender.sol\":4337:4341  bids */\n      0x02\n        /* \"tender.sol\":4342:4347  index */\n      dup2\n        /* \"tender.sol\":4337:4348  bids[index] */\n      dup2\n      sload\n      dup2\n      lt\n      tag_191\n      jumpi\n      tag_191\n      tag_192\n      jump\t// in\n    tag_191:\n      0x00\n      swap2\n      dup3\n      mstore\n      0x20\n      swap1\n      swap2\n      keccak256\n      0x03\n      swap1\n      swap2\n      mul\n      add\n        /* \"tender.sol\":4328:4348  winner = bids[index] */\n      dup1\n      sload\n        /* \"tender.sol\":4328:4334  winner */\n      0x04\n        /* \"tender.sol\":4328:4348  winner = bids[index] */\n      dup1\n      sload\n      not(0xffffffffffffffffffffffffffffffffffffffff)\n      and\n      sub(shl(0xa0, 0x01), 0x01)\n      swap1\n      swap3\n      and\n      swap2\n      swap1\n      swap2\n      or\n      dup2\n      sstore\n      0x01\n      dup3\n      add\n      sload\n      0x05\n      sstore\n      0x06\n      tag_194\n      0x02\n      dup5\n      add\n      dup3\n      tag_195\n      jump\t// in\n    tag_194:\n      pop\n      pop\n      pop\n        /* \"tender.sol\":4359:4367  winIndex */\n      0x07\n        /* \"tender.sol\":4359:4375  winIndex = index */\n      dup2\n      swap1\n      sstore\n        /* \"tender.sol\":4399:4415  winner.bidAmount */\n      sload(0x05)\n        /* \"tender.sol\":4386:4396  bid_amount */\n      0x08\n        /* \"tender.sol\":4386:4415  bid_amount = winner.bidAmount */\n      sstore\n        /* \"tender.sol\":4399:4415  winner.bidAmount */\n      0x01\n        /* \"tender.sol\":4426:4441  awaiting = true */\n      dup1\n      sload\n      0xffffffffffffffffffffff00ffffffffffffffffffffffffffffffffffffffff\n      and\n      shl(0xa0, 0x01)\n      or\n      swap1\n      sstore\n        /* \"tender.sol\":4399:4405  winner */\n      0x04\n        /* \"tender.sol\":4462:4475  winner.bidder */\n      sload\n        /* \"tender.sol\":4457:4489  done(winner.bidder,\"Authorized\") */\n      mload(0x40)\n      sub(shl(0xa0, 0x01), 0x01)\n        /* \"tender.sol\":4462:4475  winner.bidder */\n      swap1\n      swap2\n      and\n      swap1\n        /* \"tender.sol\":4457:4489  done(winner.bidder,\"Authorized\") */\n      0xddb3e8e092f582b287e510e57287106c0231b91b97d25c5872442924378808e9\n      swap1\n      tag_133\n      swap1\n        /* \"#utility.yul\":13100:13102   */\n      0x20\n        /* \"#utility.yul\":13082:13103   */\n      dup1\n      dup3\n      mstore\n        /* \"#utility.yul\":13139:13141   */\n      0x0a\n        /* \"#utility.yul\":13119:13137   */\n      swap1\n      dup3\n      add\n        /* \"#utility.yul\":13112:13142   */\n      mstore\n        /* \"#utility.yul\":13178:13190   */\n      0x417574686f72697a656400000000000000000000000000000000000000000000\n        /* \"#utility.yul\":13173:13175   */\n      0x40\n        /* \"#utility.yul\":13158:13176   */\n      dup3\n      add\n        /* \"#utility.yul\":13151:13191   */\n      mstore\n        /* \"#utility.yul\":13223:13225   */\n      0x60\n        /* \"#utility.yul\":13208:13226   */\n      add\n      swap1\n        /* \"#utility.yul\":12898:13232   */\n      jump\n        /* \"tender.sol\":1455:1472  Bid public winner */\n    tag_107:\n      0x04\n      dup1\n      sload\n      sload(0x05)\n      0x06\n      dup1\n      sload\n      sub(shl(0xa0, 0x01), 0x01)\n      swap1\n      swap4\n      and\n      swap4\n      swap2\n      swap3\n      tag_180\n      swap1\n      tag_153\n      jump\t// in\n        /* \"tender.sol\":2807:3029  function getBidSummary(uint index) public view returns (address, uint, string memory) {... */\n    tag_113:\n        /* \"tender.sol\":2863:2870  address */\n      0x00\n        /* \"tender.sol\":2872:2876  uint */\n      dup1\n        /* \"tender.sol\":2878:2891  string memory */\n      0x60\n        /* \"tender.sol\":2926:2930  bids */\n      0x02\n        /* \"tender.sol\":2931:2936  index */\n      dup5\n        /* \"tender.sol\":2926:2937  bids[index] */\n      dup2\n      sload\n      dup2\n      lt\n      tag_205\n      jumpi\n      tag_205\n      tag_192\n      jump\t// in\n    tag_205:\n      0x00\n      swap2\n      dup3\n      mstore\n      0x20\n      swap1\n      swap2\n      keccak256\n      0x03\n      swap1\n      swap2\n      mul\n      add\n        /* \"tender.sol\":2926:2944  bids[index].bidder */\n      sload\n        /* \"tender.sol\":2959:2963  bids */\n      0x02\n        /* \"tender.sol\":2959:2970  bids[index] */\n      dup1\n      sload\n      sub(shl(0xa0, 0x01), 0x01)\n        /* \"tender.sol\":2926:2944  bids[index].bidder */\n      swap1\n      swap3\n      and\n      swap2\n        /* \"tender.sol\":2964:2969  index */\n      dup7\n      swap1\n        /* \"tender.sol\":2959:2970  bids[index] */\n      dup2\n      lt\n      tag_208\n      jumpi\n      tag_208\n      tag_192\n      jump\t// in\n    tag_208:\n      swap1\n      0x00\n      mstore\n      keccak256(0x00, 0x20)\n      swap1\n      0x03\n      mul\n      add\n        /* \"tender.sol\":2959:2980  bids[index].bidAmount */\n      0x01\n      add\n      sload\n        /* \"tender.sol\":2995:2999  bids */\n      0x02\n        /* \"tender.sol\":3000:3005  index */\n      dup7\n        /* \"tender.sol\":2995:3006  bids[index] */\n      dup2\n      sload\n      dup2\n      lt\n      tag_211\n      jumpi\n      tag_211\n      tag_192\n      jump\t// in\n    tag_211:\n      swap1\n      0x00\n      mstore\n      keccak256(0x00, 0x20)\n      swap1\n      0x03\n      mul\n      add\n        /* \"tender.sol\":2995:3010  bids[index].bid */\n      0x02\n      add\n        /* \"tender.sol\":2904:3021  return (... */\n      dup1\n      dup1\n      sload\n      tag_213\n      swap1\n      tag_153\n      jump\t// in\n    tag_213:\n      dup1\n      0x1f\n      add\n      0x20\n      dup1\n      swap2\n      div\n      mul\n      0x20\n      add\n      mload(0x40)\n      swap1\n      dup2\n      add\n      0x40\n      mstore\n      dup1\n      swap3\n      swap2\n      swap1\n      dup2\n      dup2\n      mstore\n      0x20\n      add\n      dup3\n      dup1\n      sload\n      tag_214\n      swap1\n      tag_153\n      jump\t// in\n    tag_214:\n      dup1\n      iszero\n      tag_215\n      jumpi\n      dup1\n      0x1f\n      lt\n      tag_216\n      jumpi\n      0x0100\n      dup1\n      dup4\n      sload\n      div\n      mul\n      dup4\n      mstore\n      swap2\n      0x20\n      add\n      swap2\n      jump(tag_215)\n    tag_216:\n      dup3\n      add\n      swap2\n      swap1\n      0x00\n      mstore\n      keccak256(0x00, 0x20)\n      swap1\n    tag_217:\n      dup2\n      sload\n      dup2\n      mstore\n      swap1\n      0x01\n      add\n      swap1\n      0x20\n      add\n      dup1\n      dup4\n      gt\n      tag_217\n      jumpi\n      dup3\n      swap1\n      sub\n      0x1f\n      and\n      dup3\n      add\n      swap2\n    tag_215:\n      pop\n      pop\n      pop\n      pop\n      pop\n      swap1\n      pop\n      swap3\n      pop\n      swap3\n      pop\n      swap3\n      pop\n        /* \"tender.sol\":2807:3029  function getBidSummary(uint index) public view returns (address, uint, string memory) {... */\n      swap2\n      swap4\n      swap1\n      swap3\n      pop\n      jump\t// out\n        /* \"#utility.yul\":388:592   */\n    tag_218:\n        /* \"#utility.yul\":464:484   */\n      dup1\n      calldataload\n      sub(shl(0xa0, 0x01), 0x01)\n        /* \"#utility.yul\":513:567   */\n      dup2\n      and\n        /* \"#utility.yul\":503:568   */\n      dup2\n      eq\n        /* \"#utility.yul\":493:586   */\n      tag_230\n      jumpi\n        /* \"#utility.yul\":582:583   */\n      0x00\n        /* \"#utility.yul\":579:580   */\n      dup1\n        /* \"#utility.yul\":572:584   */\n      revert\n        /* \"#utility.yul\":493:586   */\n    tag_230:\n        /* \"#utility.yul\":388:592   */\n      swap2\n      swap1\n      pop\n      jump\t// out\n        /* \"#utility.yul\":597:799   */\n    tag_40:\n        /* \"#utility.yul\":664:670   */\n      0x00\n        /* \"#utility.yul\":717:719   */\n      0x20\n        /* \"#utility.yul\":705:714   */\n      dup3\n        /* \"#utility.yul\":696:703   */\n      dup5\n        /* \"#utility.yul\":692:715   */\n      sub\n        /* \"#utility.yul\":688:720   */\n      slt\n        /* \"#utility.yul\":685:737   */\n      iszero\n      tag_232\n      jumpi\n        /* \"#utility.yul\":733:734   */\n      0x00\n        /* \"#utility.yul\":730:731   */\n      dup1\n        /* \"#utility.yul\":723:735   */\n      revert\n        /* \"#utility.yul\":685:737   */\n    tag_232:\n        /* \"#utility.yul\":756:793   */\n      tag_233\n        /* \"#utility.yul\":783:792   */\n      dup3\n        /* \"#utility.yul\":756:793   */\n      tag_218\n      jump\t// in\n    tag_233:\n        /* \"#utility.yul\":746:793   */\n      swap4\n        /* \"#utility.yul\":597:799   */\n      swap3\n      pop\n      pop\n      pop\n      jump\t// out\n        /* \"#utility.yul\":804:984   */\n    tag_44:\n        /* \"#utility.yul\":863:869   */\n      0x00\n        /* \"#utility.yul\":916:918   */\n      0x20\n        /* \"#utility.yul\":904:913   */\n      dup3\n        /* \"#utility.yul\":895:902   */\n      dup5\n        /* \"#utility.yul\":891:914   */\n      sub\n        /* \"#utility.yul\":887:919   */\n      slt\n        /* \"#utility.yul\":884:936   */\n      iszero\n      tag_235\n      jumpi\n        /* \"#utility.yul\":932:933   */\n      0x00\n        /* \"#utility.yul\":929:930   */\n      dup1\n        /* \"#utility.yul\":922:934   */\n      revert\n        /* \"#utility.yul\":884:936   */\n    tag_235:\n      pop\n        /* \"#utility.yul\":955:978   */\n      calldataload\n      swap2\n        /* \"#utility.yul\":804:984   */\n      swap1\n      pop\n      jump\t// out\n        /* \"#utility.yul\":989:1412   */\n    tag_219:\n        /* \"#utility.yul\":1031:1034   */\n      0x00\n        /* \"#utility.yul\":1069:1074   */\n      dup2\n        /* \"#utility.yul\":1063:1075   */\n      mload\n        /* \"#utility.yul\":1096:1102   */\n      dup1\n        /* \"#utility.yul\":1091:1094   */\n      dup5\n        /* \"#utility.yul\":1084:1103   */\n      mstore\n        /* \"#utility.yul\":1121:1122   */\n      0x00\n        /* \"#utility.yul\":1131:1293   */\n    tag_237:\n        /* \"#utility.yul\":1145:1151   */\n      dup2\n        /* \"#utility.yul\":1142:1143   */\n      dup2\n        /* \"#utility.yul\":1139:1152   */\n      lt\n        /* \"#utility.yul\":1131:1293   */\n      iszero\n      tag_239\n      jumpi\n        /* \"#utility.yul\":1207:1211   */\n      0x20\n        /* \"#utility.yul\":1263:1276   */\n      dup2\n      dup6\n      add\n        /* \"#utility.yul\":1259:1281   */\n      dup2\n      add\n        /* \"#utility.yul\":1253:1282   */\n      mload\n        /* \"#utility.yul\":1235:1246   */\n      dup7\n      dup4\n      add\n        /* \"#utility.yul\":1231:1251   */\n      dup3\n      add\n        /* \"#utility.yul\":1224:1283   */\n      mstore\n        /* \"#utility.yul\":1160:1172   */\n      add\n        /* \"#utility.yul\":1131:1293   */\n      jump(tag_237)\n    tag_239:\n        /* \"#utility.yul\":1135:1138   */\n      pop\n        /* \"#utility.yul\":1338:1339   */\n      0x00\n        /* \"#utility.yul\":1331:1335   */\n      0x20\n        /* \"#utility.yul\":1322:1328   */\n      dup3\n        /* \"#utility.yul\":1317:1320   */\n      dup7\n        /* \"#utility.yul\":1313:1329   */\n      add\n        /* \"#utility.yul\":1309:1336   */\n      add\n        /* \"#utility.yul\":1302:1340   */\n      mstore\n        /* \"#utility.yul\":1401:1405   */\n      0x20\n        /* \"#utility.yul\":1394:1396   */\n      0x1f\n        /* \"#utility.yul\":1390:1397   */\n      not\n        /* \"#utility.yul\":1385:1387   */\n      0x1f\n        /* \"#utility.yul\":1377:1383   */\n      dup4\n        /* \"#utility.yul\":1373:1388   */\n      add\n        /* \"#utility.yul\":1369:1398   */\n      and\n        /* \"#utility.yul\":1364:1367   */\n      dup6\n        /* \"#utility.yul\":1360:1399   */\n      add\n        /* \"#utility.yul\":1356:1406   */\n      add\n        /* \"#utility.yul\":1349:1406   */\n      swap2\n      pop\n      pop\n        /* \"#utility.yul\":989:1412   */\n      swap3\n      swap2\n      pop\n      pop\n      jump\t// out\n        /* \"#utility.yul\":1417:1964   */\n    tag_50:\n        /* \"#utility.yul\":1658:1661   */\n      0x80\n        /* \"#utility.yul\":1647:1656   */\n      dup2\n        /* \"#utility.yul\":1640:1662   */\n      mstore\n        /* \"#utility.yul\":1621:1625   */\n      0x00\n        /* \"#utility.yul\":1685:1731   */\n      tag_241\n        /* \"#utility.yul\":1726:1729   */\n      0x80\n        /* \"#utility.yul\":1715:1724   */\n      dup4\n        /* \"#utility.yul\":1711:1730   */\n      add\n        /* \"#utility.yul\":1703:1709   */\n      dup8\n        /* \"#utility.yul\":1685:1731   */\n      tag_219\n      jump\t// in\n    tag_241:\n        /* \"#utility.yul\":1781:1787   */\n      dup6\n        /* \"#utility.yul\":1774:1788   */\n      iszero\n        /* \"#utility.yul\":1767:1789   */\n      iszero\n        /* \"#utility.yul\":1762:1764   */\n      0x20\n        /* \"#utility.yul\":1751:1760   */\n      dup5\n        /* \"#utility.yul\":1747:1765   */\n      add\n        /* \"#utility.yul\":1740:1790   */\n      mstore\n        /* \"#utility.yul\":1838:1847   */\n      dup3\n        /* \"#utility.yul\":1830:1836   */\n      dup2\n        /* \"#utility.yul\":1826:1848   */\n      sub\n        /* \"#utility.yul\":1821:1823   */\n      0x40\n        /* \"#utility.yul\":1810:1819   */\n      dup5\n        /* \"#utility.yul\":1806:1824   */\n      add\n        /* \"#utility.yul\":1799:1849   */\n      mstore\n        /* \"#utility.yul\":1866:1899   */\n      tag_242\n        /* \"#utility.yul\":1892:1898   */\n      dup2\n        /* \"#utility.yul\":1884:1890   */\n      dup7\n        /* \"#utility.yul\":1866:1899   */\n      tag_219\n      jump\t// in\n    tag_242:\n        /* \"#utility.yul\":1858:1899   */\n      swap2\n      pop\n      pop\n        /* \"#utility.yul\":1949:1955   */\n      dup3\n        /* \"#utility.yul\":1942:1956   */\n      iszero\n        /* \"#utility.yul\":1935:1957   */\n      iszero\n        /* \"#utility.yul\":1930:1932   */\n      0x60\n        /* \"#utility.yul\":1919:1928   */\n      dup4\n        /* \"#utility.yul\":1915:1933   */\n      add\n        /* \"#utility.yul\":1908:1958   */\n      mstore\n        /* \"#utility.yul\":1417:1964   */\n      swap6\n      swap5\n      pop\n      pop\n      pop\n      pop\n      pop\n      jump\t// out\n        /* \"#utility.yul\":1969:2096   */\n    tag_220:\n        /* \"#utility.yul\":2030:2040   */\n      0x4e487b71\n        /* \"#utility.yul\":2025:2028   */\n      0xe0\n        /* \"#utility.yul\":2021:2041   */\n      shl\n        /* \"#utility.yul\":2018:2019   */\n      0x00\n        /* \"#utility.yul\":2011:2042   */\n      mstore\n        /* \"#utility.yul\":2061:2065   */\n      0x41\n        /* \"#utility.yul\":2058:2059   */\n      0x04\n        /* \"#utility.yul\":2051:2066   */\n      mstore\n        /* \"#utility.yul\":2085:2089   */\n      0x24\n        /* \"#utility.yul\":2082:2083   */\n      0x00\n        /* \"#utility.yul\":2075:2090   */\n      revert\n        /* \"#utility.yul\":2101:2820   */\n    tag_221:\n        /* \"#utility.yul\":2144:2149   */\n      0x00\n        /* \"#utility.yul\":2197:2200   */\n      dup3\n        /* \"#utility.yul\":2190:2194   */\n      0x1f\n        /* \"#utility.yul\":2182:2188   */\n      dup4\n        /* \"#utility.yul\":2178:2195   */\n      add\n        /* \"#utility.yul\":2174:2201   */\n      slt\n        /* \"#utility.yul\":2164:2219   */\n      tag_245\n      jumpi\n        /* \"#utility.yul\":2215:2216   */\n      0x00\n        /* \"#utility.yul\":2212:2213   */\n      dup1\n        /* \"#utility.yul\":2205:2217   */\n      revert\n        /* \"#utility.yul\":2164:2219   */\n    tag_245:\n        /* \"#utility.yul\":2251:2257   */\n      dup2\n        /* \"#utility.yul\":2238:2258   */\n      calldataload\n        /* \"#utility.yul\":2277:2295   */\n      0xffffffffffffffff\n        /* \"#utility.yul\":2314:2316   */\n      dup1\n        /* \"#utility.yul\":2310:2312   */\n      dup3\n        /* \"#utility.yul\":2307:2317   */\n      gt\n        /* \"#utility.yul\":2304:2340   */\n      iszero\n      tag_247\n      jumpi\n        /* \"#utility.yul\":2320:2338   */\n      tag_247\n      tag_220\n      jump\t// in\n    tag_247:\n        /* \"#utility.yul\":2395:2397   */\n      0x40\n        /* \"#utility.yul\":2389:2398   */\n      mload\n        /* \"#utility.yul\":2363:2365   */\n      0x1f\n        /* \"#utility.yul\":2449:2462   */\n      dup4\n      add\n      not(0x1f)\n        /* \"#utility.yul\":2445:2467   */\n      swap1\n      dup2\n      and\n        /* \"#utility.yul\":2469:2471   */\n      0x3f\n        /* \"#utility.yul\":2441:2472   */\n      add\n        /* \"#utility.yul\":2437:2477   */\n      and\n        /* \"#utility.yul\":2425:2478   */\n      dup2\n      add\n      swap1\n        /* \"#utility.yul\":2493:2511   */\n      dup3\n      dup3\n      gt\n        /* \"#utility.yul\":2513:2535   */\n      dup2\n      dup4\n      lt\n        /* \"#utility.yul\":2490:2536   */\n      or\n        /* \"#utility.yul\":2487:2559   */\n      iszero\n      tag_249\n      jumpi\n        /* \"#utility.yul\":2539:2557   */\n      tag_249\n      tag_220\n      jump\t// in\n    tag_249:\n        /* \"#utility.yul\":2579:2589   */\n      dup2\n        /* \"#utility.yul\":2575:2577   */\n      0x40\n        /* \"#utility.yul\":2568:2590   */\n      mstore\n        /* \"#utility.yul\":2614:2616   */\n      dup4\n        /* \"#utility.yul\":2606:2612   */\n      dup2\n        /* \"#utility.yul\":2599:2617   */\n      mstore\n        /* \"#utility.yul\":2660:2663   */\n      dup7\n        /* \"#utility.yul\":2653:2657   */\n      0x20\n        /* \"#utility.yul\":2648:2650   */\n      dup6\n        /* \"#utility.yul\":2640:2646   */\n      dup9\n        /* \"#utility.yul\":2636:2651   */\n      add\n        /* \"#utility.yul\":2632:2658   */\n      add\n        /* \"#utility.yul\":2629:2664   */\n      gt\n        /* \"#utility.yul\":2626:2681   */\n      iszero\n      tag_250\n      jumpi\n        /* \"#utility.yul\":2677:2678   */\n      0x00\n        /* \"#utility.yul\":2674:2675   */\n      dup1\n        /* \"#utility.yul\":2667:2679   */\n      revert\n        /* \"#utility.yul\":2626:2681   */\n    tag_250:\n        /* \"#utility.yul\":2741:2743   */\n      dup4\n        /* \"#utility.yul\":2734:2738   */\n      0x20\n        /* \"#utility.yul\":2726:2732   */\n      dup8\n        /* \"#utility.yul\":2722:2739   */\n      add\n        /* \"#utility.yul\":2715:2719   */\n      0x20\n        /* \"#utility.yul\":2707:2713   */\n      dup4\n        /* \"#utility.yul\":2703:2720   */\n      add\n        /* \"#utility.yul\":2690:2744   */\n      calldatacopy\n        /* \"#utility.yul\":2788:2789   */\n      0x00\n        /* \"#utility.yul\":2781:2785   */\n      0x20\n        /* \"#utility.yul\":2776:2778   */\n      dup6\n        /* \"#utility.yul\":2768:2774   */\n      dup4\n        /* \"#utility.yul\":2764:2779   */\n      add\n        /* \"#utility.yul\":2760:2786   */\n      add\n        /* \"#utility.yul\":2753:2790   */\n      mstore\n        /* \"#utility.yul\":2808:2814   */\n      dup1\n        /* \"#utility.yul\":2799:2814   */\n      swap5\n      pop\n      pop\n      pop\n      pop\n      pop\n        /* \"#utility.yul\":2101:2820   */\n      swap3\n      swap2\n      pop\n      pop\n      jump\t// out\n        /* \"#utility.yul\":2825:3215   */\n    tag_58:\n        /* \"#utility.yul\":2903:2909   */\n      0x00\n        /* \"#utility.yul\":2911:2917   */\n      dup1\n        /* \"#utility.yul\":2964:2966   */\n      0x40\n        /* \"#utility.yul\":2952:2961   */\n      dup4\n        /* \"#utility.yul\":2943:2950   */\n      dup6\n        /* \"#utility.yul\":2939:2962   */\n      sub\n        /* \"#utility.yul\":2935:2967   */\n      slt\n        /* \"#utility.yul\":2932:2984   */\n      iszero\n      tag_252\n      jumpi\n        /* \"#utility.yul\":2980:2981   */\n      0x00\n        /* \"#utility.yul\":2977:2978   */\n      dup1\n        /* \"#utility.yul\":2970:2982   */\n      revert\n        /* \"#utility.yul\":2932:2984   */\n    tag_252:\n        /* \"#utility.yul\":3016:3025   */\n      dup3\n        /* \"#utility.yul\":3003:3026   */\n      calldataload\n        /* \"#utility.yul\":2993:3026   */\n      swap2\n      pop\n        /* \"#utility.yul\":3077:3079   */\n      0x20\n        /* \"#utility.yul\":3066:3075   */\n      dup4\n        /* \"#utility.yul\":3062:3080   */\n      add\n        /* \"#utility.yul\":3049:3081   */\n      calldataload\n        /* \"#utility.yul\":3104:3122   */\n      0xffffffffffffffff\n        /* \"#utility.yul\":3096:3102   */\n      dup2\n        /* \"#utility.yul\":3093:3123   */\n      gt\n        /* \"#utility.yul\":3090:3140   */\n      iszero\n      tag_253\n      jumpi\n        /* \"#utility.yul\":3136:3137   */\n      0x00\n        /* \"#utility.yul\":3133:3134   */\n      dup1\n        /* \"#utility.yul\":3126:3138   */\n      revert\n        /* \"#utility.yul\":3090:3140   */\n    tag_253:\n        /* \"#utility.yul\":3159:3209   */\n      tag_254\n        /* \"#utility.yul\":3201:3208   */\n      dup6\n        /* \"#utility.yul\":3192:3198   */\n      dup3\n        /* \"#utility.yul\":3181:3190   */\n      dup7\n        /* \"#utility.yul\":3177:3199   */\n      add\n        /* \"#utility.yul\":3159:3209   */\n      tag_221\n      jump\t// in\n    tag_254:\n        /* \"#utility.yul\":3149:3209   */\n      swap2\n      pop\n      pop\n        /* \"#utility.yul\":2825:3215   */\n      swap3\n      pop\n      swap3\n      swap1\n      pop\n      jump\t// out\n        /* \"#utility.yul\":3220:3632   */\n    tag_63:\n        /* \"#utility.yul\":3306:3312   */\n      0x00\n        /* \"#utility.yul\":3314:3320   */\n      dup1\n        /* \"#utility.yul\":3367:3369   */\n      0x40\n        /* \"#utility.yul\":3355:3364   */\n      dup4\n        /* \"#utility.yul\":3346:3353   */\n      dup6\n        /* \"#utility.yul\":3342:3365   */\n      sub\n        /* \"#utility.yul\":3338:3370   */\n      slt\n        /* \"#utility.yul\":3335:3387   */\n      iszero\n      tag_256\n      jumpi\n        /* \"#utility.yul\":3383:3384   */\n      0x00\n        /* \"#utility.yul\":3380:3381   */\n      dup1\n        /* \"#utility.yul\":3373:3385   */\n      revert\n        /* \"#utility.yul\":3335:3387   */\n    tag_256:\n        /* \"#utility.yul\":3423:3432   */\n      dup3\n        /* \"#utility.yul\":3410:3433   */\n      calldataload\n        /* \"#utility.yul\":3456:3474   */\n      0xffffffffffffffff\n        /* \"#utility.yul\":3448:3454   */\n      dup2\n        /* \"#utility.yul\":3445:3475   */\n      gt\n        /* \"#utility.yul\":3442:3492   */\n      iszero\n      tag_257\n      jumpi\n        /* \"#utility.yul\":3488:3489   */\n      0x00\n        /* \"#utility.yul\":3485:3486   */\n      dup1\n        /* \"#utility.yul\":3478:3490   */\n      revert\n        /* \"#utility.yul\":3442:3492   */\n    tag_257:\n        /* \"#utility.yul\":3511:3561   */\n      tag_258\n        /* \"#utility.yul\":3553:3560   */\n      dup6\n        /* \"#utility.yul\":3544:3550   */\n      dup3\n        /* \"#utility.yul\":3533:3542   */\n      dup7\n        /* \"#utility.yul\":3529:3551   */\n      add\n        /* \"#utility.yul\":3511:3561   */\n      tag_221\n      jump\t// in\n    tag_258:\n        /* \"#utility.yul\":3501:3561   */\n      swap3\n      pop\n      pop\n        /* \"#utility.yul\":3580:3626   */\n      tag_259\n        /* \"#utility.yul\":3622:3624   */\n      0x20\n        /* \"#utility.yul\":3611:3620   */\n      dup5\n        /* \"#utility.yul\":3607:3625   */\n      add\n        /* \"#utility.yul\":3580:3626   */\n      tag_218\n      jump\t// in\n    tag_259:\n        /* \"#utility.yul\":3570:3626   */\n      swap1\n      pop\n        /* \"#utility.yul\":3220:3632   */\n      swap3\n      pop\n      swap3\n      swap1\n      pop\n      jump\t// out\n        /* \"#utility.yul\":3637:4048   */\n    tag_69:\n      sub(shl(0xa0, 0x01), 0x01)\n        /* \"#utility.yul\":3846:3852   */\n      dup5\n        /* \"#utility.yul\":3842:3897   */\n      and\n        /* \"#utility.yul\":3831:3840   */\n      dup2\n        /* \"#utility.yul\":3824:3898   */\n      mstore\n        /* \"#utility.yul\":3934:3936   */\n      0x60\n        /* \"#utility.yul\":3929:3931   */\n      0x20\n        /* \"#utility.yul\":3918:3927   */\n      dup3\n        /* \"#utility.yul\":3914:3932   */\n      add\n        /* \"#utility.yul\":3907:3937   */\n      mstore\n        /* \"#utility.yul\":3805:3809   */\n      0x00\n        /* \"#utility.yul\":3954:3999   */\n      tag_261\n        /* \"#utility.yul\":3995:3997   */\n      0x60\n        /* \"#utility.yul\":3984:3993   */\n      dup4\n        /* \"#utility.yul\":3980:3998   */\n      add\n        /* \"#utility.yul\":3972:3978   */\n      dup6\n        /* \"#utility.yul\":3954:3999   */\n      tag_219\n      jump\t// in\n    tag_261:\n        /* \"#utility.yul\":3946:3999   */\n      swap1\n      pop\n        /* \"#utility.yul\":4035:4041   */\n      dup3\n        /* \"#utility.yul\":4030:4032   */\n      0x40\n        /* \"#utility.yul\":4019:4028   */\n      dup4\n        /* \"#utility.yul\":4015:4033   */\n      add\n        /* \"#utility.yul\":4008:4042   */\n      mstore\n        /* \"#utility.yul\":3637:4048   */\n      swap5\n      swap4\n      pop\n      pop\n      pop\n      pop\n      jump\t// out\n        /* \"#utility.yul\":4300:4520   */\n    tag_90:\n        /* \"#utility.yul\":4449:4451   */\n      0x20\n        /* \"#utility.yul\":4438:4447   */\n      dup2\n        /* \"#utility.yul\":4431:4452   */\n      mstore\n        /* \"#utility.yul\":4412:4416   */\n      0x00\n        /* \"#utility.yul\":4469:4514   */\n      tag_233\n        /* \"#utility.yul\":4510:4512   */\n      0x20\n        /* \"#utility.yul\":4499:4508   */\n      dup4\n        /* \"#utility.yul\":4495:4513   */\n      add\n        /* \"#utility.yul\":4487:4493   */\n      dup5\n        /* \"#utility.yul\":4469:4514   */\n      tag_219\n      jump\t// in\n        /* \"#utility.yul\":4525:4887   */\n    tag_100:\n        /* \"#utility.yul\":4730:4736   */\n      dup4\n        /* \"#utility.yul\":4719:4728   */\n      dup2\n        /* \"#utility.yul\":4712:4737   */\n      mstore\n        /* \"#utility.yul\":4773:4779   */\n      dup3\n        /* \"#utility.yul\":4768:4770   */\n      0x20\n        /* \"#utility.yul\":4757:4766   */\n      dup3\n        /* \"#utility.yul\":4753:4771   */\n      add\n        /* \"#utility.yul\":4746:4780   */\n      mstore\n        /* \"#utility.yul\":4816:4818   */\n      0x60\n        /* \"#utility.yul\":4811:4813   */\n      0x40\n        /* \"#utility.yul\":4800:4809   */\n      dup3\n        /* \"#utility.yul\":4796:4814   */\n      add\n        /* \"#utility.yul\":4789:4819   */\n      mstore\n        /* \"#utility.yul\":4693:4697   */\n      0x00\n        /* \"#utility.yul\":4836:4881   */\n      tag_266\n        /* \"#utility.yul\":4877:4879   */\n      0x60\n        /* \"#utility.yul\":4866:4875   */\n      dup4\n        /* \"#utility.yul\":4862:4880   */\n      add\n        /* \"#utility.yul\":4854:4860   */\n      dup5\n        /* \"#utility.yul\":4836:4881   */\n      tag_219\n      jump\t// in\n    tag_266:\n        /* \"#utility.yul\":4828:4881   */\n      swap6\n        /* \"#utility.yul\":4525:4887   */\n      swap5\n      pop\n      pop\n      pop\n      pop\n      pop\n      jump\t// out\n        /* \"#utility.yul\":4892:5303   */\n    tag_109:\n      sub(shl(0xa0, 0x01), 0x01)\n        /* \"#utility.yul\":5101:5107   */\n      dup5\n        /* \"#utility.yul\":5097:5152   */\n      and\n        /* \"#utility.yul\":5086:5095   */\n      dup2\n        /* \"#utility.yul\":5079:5153   */\n      mstore\n        /* \"#utility.yul\":5189:5195   */\n      dup3\n        /* \"#utility.yul\":5184:5186   */\n      0x20\n        /* \"#utility.yul\":5173:5182   */\n      dup3\n        /* \"#utility.yul\":5169:5187   */\n      add\n        /* \"#utility.yul\":5162:5196   */\n      mstore\n        /* \"#utility.yul\":5232:5234   */\n      0x60\n        /* \"#utility.yul\":5227:5229   */\n      0x40\n        /* \"#utility.yul\":5216:5225   */\n      dup3\n        /* \"#utility.yul\":5212:5230   */\n      add\n        /* \"#utility.yul\":5205:5235   */\n      mstore\n        /* \"#utility.yul\":5060:5064   */\n      0x00\n        /* \"#utility.yul\":5252:5297   */\n      tag_266\n        /* \"#utility.yul\":5293:5295   */\n      0x60\n        /* \"#utility.yul\":5282:5291   */\n      dup4\n        /* \"#utility.yul\":5278:5296   */\n      add\n        /* \"#utility.yul\":5270:5276   */\n      dup5\n        /* \"#utility.yul\":5252:5297   */\n      tag_219\n      jump\t// in\n        /* \"#utility.yul\":7046:7426   */\n    tag_153:\n        /* \"#utility.yul\":7125:7126   */\n      0x01\n        /* \"#utility.yul\":7121:7133   */\n      dup2\n      dup2\n      shr\n      swap1\n        /* \"#utility.yul\":7168:7180   */\n      dup3\n      and\n      dup1\n        /* \"#utility.yul\":7189:7250   */\n      tag_275\n      jumpi\n        /* \"#utility.yul\":7243:7247   */\n      0x7f\n        /* \"#utility.yul\":7235:7241   */\n      dup3\n        /* \"#utility.yul\":7231:7248   */\n      and\n        /* \"#utility.yul\":7221:7248   */\n      swap2\n      pop\n        /* \"#utility.yul\":7189:7250   */\n    tag_275:\n        /* \"#utility.yul\":7296:7298   */\n      0x20\n        /* \"#utility.yul\":7288:7294   */\n      dup3\n        /* \"#utility.yul\":7285:7299   */\n      lt\n        /* \"#utility.yul\":7265:7283   */\n      dup2\n        /* \"#utility.yul\":7262:7300   */\n      sub\n        /* \"#utility.yul\":7259:7420   */\n      tag_276\n      jumpi\n        /* \"#utility.yul\":7342:7352   */\n      0x4e487b71\n        /* \"#utility.yul\":7337:7340   */\n      0xe0\n        /* \"#utility.yul\":7333:7353   */\n      shl\n        /* \"#utility.yul\":7330:7331   */\n      0x00\n        /* \"#utility.yul\":7323:7354   */\n      mstore\n        /* \"#utility.yul\":7377:7381   */\n      0x22\n        /* \"#utility.yul\":7374:7375   */\n      0x04\n        /* \"#utility.yul\":7367:7382   */\n      mstore\n        /* \"#utility.yul\":7405:7409   */\n      0x24\n        /* \"#utility.yul\":7402:7403   */\n      0x00\n        /* \"#utility.yul\":7395:7410   */\n      revert\n        /* \"#utility.yul\":7259:7420   */\n    tag_276:\n      pop\n        /* \"#utility.yul\":7046:7426   */\n      swap2\n      swap1\n      pop\n      jump\t// out\n        /* \"#utility.yul\":7557:8102   */\n    tag_223:\n        /* \"#utility.yul\":7659:7661   */\n      0x1f\n        /* \"#utility.yul\":7654:7657   */\n      dup3\n        /* \"#utility.yul\":7651:7662   */\n      gt\n        /* \"#utility.yul\":7648:8096   */\n      iszero\n      tag_279\n      jumpi\n        /* \"#utility.yul\":7695:7696   */\n      0x00\n        /* \"#utility.yul\":7720:7725   */\n      dup2\n        /* \"#utility.yul\":7716:7718   */\n      dup2\n        /* \"#utility.yul\":7709:7726   */\n      mstore\n        /* \"#utility.yul\":7765:7769   */\n      0x20\n        /* \"#utility.yul\":7761:7763   */\n      dup2\n        /* \"#utility.yul\":7751:7770   */\n      keccak256\n        /* \"#utility.yul\":7835:7837   */\n      0x1f\n        /* \"#utility.yul\":7823:7833   */\n      dup6\n        /* \"#utility.yul\":7819:7838   */\n      add\n        /* \"#utility.yul\":7816:7817   */\n      0x05\n        /* \"#utility.yul\":7812:7839   */\n      shr\n        /* \"#utility.yul\":7806:7810   */\n      dup2\n        /* \"#utility.yul\":7802:7840   */\n      add\n        /* \"#utility.yul\":7871:7875   */\n      0x20\n        /* \"#utility.yul\":7859:7869   */\n      dup7\n        /* \"#utility.yul\":7856:7876   */\n      lt\n        /* \"#utility.yul\":7853:7900   */\n      iszero\n      tag_280\n      jumpi\n      pop\n        /* \"#utility.yul\":7894:7898   */\n      dup1\n        /* \"#utility.yul\":7853:7900   */\n    tag_280:\n        /* \"#utility.yul\":7949:7951   */\n      0x1f\n        /* \"#utility.yul\":7944:7947   */\n      dup6\n        /* \"#utility.yul\":7940:7952   */\n      add\n        /* \"#utility.yul\":7937:7938   */\n      0x05\n        /* \"#utility.yul\":7933:7953   */\n      shr\n        /* \"#utility.yul\":7927:7931   */\n      dup3\n        /* \"#utility.yul\":7923:7954   */\n      add\n        /* \"#utility.yul\":7913:7954   */\n      swap2\n      pop\n        /* \"#utility.yul\":8004:8086   */\n    tag_281:\n        /* \"#utility.yul\":8022:8024   */\n      dup2\n        /* \"#utility.yul\":8015:8020   */\n      dup2\n        /* \"#utility.yul\":8012:8025   */\n      lt\n        /* \"#utility.yul\":8004:8086   */\n      iszero\n      tag_283\n      jumpi\n        /* \"#utility.yul\":8067:8084   */\n      dup3\n      dup2\n      sstore\n        /* \"#utility.yul\":8048:8049   */\n      0x01\n        /* \"#utility.yul\":8037:8050   */\n      add\n        /* \"#utility.yul\":8004:8086   */\n      jump(tag_281)\n    tag_283:\n        /* \"#utility.yul\":8008:8011   */\n      pop\n      pop\n      pop\n        /* \"#utility.yul\":7648:8096   */\n    tag_279:\n        /* \"#utility.yul\":7557:8102   */\n      pop\n      pop\n      pop\n      jump\t// out\n        /* \"#utility.yul\":8278:9630   */\n    tag_142:\n        /* \"#utility.yul\":8404:8407   */\n      dup2\n        /* \"#utility.yul\":8398:8408   */\n      mload\n        /* \"#utility.yul\":8431:8449   */\n      0xffffffffffffffff\n        /* \"#utility.yul\":8423:8429   */\n      dup2\n        /* \"#utility.yul\":8420:8450   */\n      gt\n        /* \"#utility.yul\":8417:8473   */\n      iszero\n      tag_287\n      jumpi\n        /* \"#utility.yul\":8453:8471   */\n      tag_287\n      tag_220\n      jump\t// in\n    tag_287:\n        /* \"#utility.yul\":8482:8579   */\n      tag_288\n        /* \"#utility.yul\":8572:8578   */\n      dup2\n        /* \"#utility.yul\":8532:8570   */\n      tag_289\n        /* \"#utility.yul\":8564:8568   */\n      dup5\n        /* \"#utility.yul\":8558:8569   */\n      sload\n        /* \"#utility.yul\":8532:8570   */\n      tag_153\n      jump\t// in\n    tag_289:\n        /* \"#utility.yul\":8526:8530   */\n      dup5\n        /* \"#utility.yul\":8482:8579   */\n      tag_223\n      jump\t// in\n    tag_288:\n        /* \"#utility.yul\":8634:8638   */\n      0x20\n      dup1\n        /* \"#utility.yul\":8698:8700   */\n      0x1f\n        /* \"#utility.yul\":8687:8701   */\n      dup4\n      gt\n        /* \"#utility.yul\":8715:8716   */\n      0x01\n        /* \"#utility.yul\":8710:9373   */\n      dup2\n      eq\n      tag_291\n      jumpi\n        /* \"#utility.yul\":9417:9418   */\n      0x00\n        /* \"#utility.yul\":9434:9440   */\n      dup5\n        /* \"#utility.yul\":9431:9520   */\n      iszero\n      tag_292\n      jumpi\n      pop\n        /* \"#utility.yul\":9486:9505   */\n      dup6\n      dup4\n      add\n        /* \"#utility.yul\":9480:9506   */\n      mload\n        /* \"#utility.yul\":9431:9520   */\n    tag_292:\n      not(0x00)\n        /* \"#utility.yul\":8235:8236   */\n      0x03\n        /* \"#utility.yul\":8231:8242   */\n      dup7\n      swap1\n      shl\n        /* \"#utility.yul\":8227:8251   */\n      shr\n        /* \"#utility.yul\":8223:8252   */\n      not\n        /* \"#utility.yul\":8213:8253   */\n      and\n        /* \"#utility.yul\":8259:8260   */\n      0x01\n        /* \"#utility.yul\":8255:8266   */\n      dup6\n      swap1\n      shl\n        /* \"#utility.yul\":8210:8267   */\n      or\n        /* \"#utility.yul\":9533:9614   */\n      dup6\n      sstore\n        /* \"#utility.yul\":8680:9624   */\n      jump(tag_283)\n        /* \"#utility.yul\":8710:9373   */\n    tag_291:\n        /* \"#utility.yul\":7504:7505   */\n      0x00\n        /* \"#utility.yul\":7497:7511   */\n      dup6\n      dup2\n      mstore\n        /* \"#utility.yul\":7541:7545   */\n      0x20\n        /* \"#utility.yul\":7528:7546   */\n      dup2\n      keccak256\n      not(0x1f)\n        /* \"#utility.yul\":8746:8766   */\n      dup7\n      and\n      swap2\n        /* \"#utility.yul\":8864:9100   */\n    tag_295:\n        /* \"#utility.yul\":8878:8885   */\n      dup3\n        /* \"#utility.yul\":8875:8876   */\n      dup2\n        /* \"#utility.yul\":8872:8886   */\n      lt\n        /* \"#utility.yul\":8864:9100   */\n      iszero\n      tag_297\n      jumpi\n        /* \"#utility.yul\":8967:8986   */\n      dup9\n      dup7\n      add\n        /* \"#utility.yul\":8961:8987   */\n      mload\n        /* \"#utility.yul\":8946:8988   */\n      dup3\n      sstore\n        /* \"#utility.yul\":9059:9086   */\n      swap5\n      dup5\n      add\n      swap5\n        /* \"#utility.yul\":9027:9028   */\n      0x01\n        /* \"#utility.yul\":9015:9029   */\n      swap1\n      swap2\n      add\n      swap1\n        /* \"#utility.yul\":8894:8913   */\n      dup5\n      add\n        /* \"#utility.yul\":8864:9100   */\n      jump(tag_295)\n    tag_297:\n        /* \"#utility.yul\":8868:8871   */\n      pop\n        /* \"#utility.yul\":9128:9134   */\n      dup6\n        /* \"#utility.yul\":9119:9126   */\n      dup3\n        /* \"#utility.yul\":9116:9135   */\n      lt\n        /* \"#utility.yul\":9113:9314   */\n      iszero\n      tag_298\n      jumpi\n        /* \"#utility.yul\":9189:9208   */\n      dup8\n      dup6\n      add\n        /* \"#utility.yul\":9183:9209   */\n      mload\n      not(0x00)\n        /* \"#utility.yul\":9272:9273   */\n      0x03\n        /* \"#utility.yul\":9268:9282   */\n      dup9\n      swap1\n      shl\n        /* \"#utility.yul\":9284:9287   */\n      0xf8\n        /* \"#utility.yul\":9264:9288   */\n      and\n        /* \"#utility.yul\":9260:9297   */\n      shr\n        /* \"#utility.yul\":9256:9298   */\n      not\n        /* \"#utility.yul\":9241:9299   */\n      and\n        /* \"#utility.yul\":9226:9300   */\n      dup2\n      sstore\n        /* \"#utility.yul\":9113:9314   */\n    tag_298:\n      pop\n      pop\n      pop\n      pop\n      pop\n        /* \"#utility.yul\":9360:9361   */\n      0x01\n        /* \"#utility.yul\":9344:9358   */\n      swap1\n      dup2\n      shl\n        /* \"#utility.yul\":9340:9362   */\n      add\n        /* \"#utility.yul\":9327:9363   */\n      swap1\n      sstore\n      pop\n        /* \"#utility.yul\":8278:9630   */\n      jump\t// out\n        /* \"#utility.yul\":10326:10453   */\n    tag_225:\n        /* \"#utility.yul\":10387:10397   */\n      0x4e487b71\n        /* \"#utility.yul\":10382:10385   */\n      0xe0\n        /* \"#utility.yul\":10378:10398   */\n      shl\n        /* \"#utility.yul\":10375:10376   */\n      0x00\n        /* \"#utility.yul\":10368:10399   */\n      mstore\n        /* \"#utility.yul\":10418:10422   */\n      0x11\n        /* \"#utility.yul\":10415:10416   */\n      0x04\n        /* \"#utility.yul\":10408:10423   */\n      mstore\n        /* \"#utility.yul\":10442:10446   */\n      0x24\n        /* \"#utility.yul\":10439:10440   */\n      0x00\n        /* \"#utility.yul\":10432:10447   */\n      revert\n        /* \"#utility.yul\":10458:10626   */\n    tag_163:\n        /* \"#utility.yul\":10531:10540   */\n      dup1\n      dup3\n      mul\n        /* \"#utility.yul\":10562:10571   */\n      dup2\n      iszero\n        /* \"#utility.yul\":10579:10594   */\n      dup3\n      dup3\n      div\n        /* \"#utility.yul\":10573:10595   */\n      dup5\n      eq\n        /* \"#utility.yul\":10559:10596   */\n      or\n        /* \"#utility.yul\":10549:10620   */\n      tag_304\n      jumpi\n        /* \"#utility.yul\":10600:10618   */\n      tag_304\n      tag_225\n      jump\t// in\n    tag_304:\n        /* \"#utility.yul\":10458:10626   */\n      swap3\n      swap2\n      pop\n      pop\n      jump\t// out\n        /* \"#utility.yul\":10631:10848   */\n    tag_165:\n        /* \"#utility.yul\":10671:10672   */\n      0x00\n        /* \"#utility.yul\":10697:10698   */\n      dup3\n        /* \"#utility.yul\":10687:10819   */\n      tag_306\n      jumpi\n        /* \"#utility.yul\":10741:10751   */\n      0x4e487b71\n        /* \"#utility.yul\":10736:10739   */\n      0xe0\n        /* \"#utility.yul\":10732:10752   */\n      shl\n        /* \"#utility.yul\":10729:10730   */\n      0x00\n        /* \"#utility.yul\":10722:10753   */\n      mstore\n        /* \"#utility.yul\":10776:10780   */\n      0x12\n        /* \"#utility.yul\":10773:10774   */\n      0x04\n        /* \"#utility.yul\":10766:10781   */\n      mstore\n        /* \"#utility.yul\":10804:10808   */\n      0x24\n        /* \"#utility.yul\":10801:10802   */\n      0x00\n        /* \"#utility.yul\":10794:10809   */\n      revert\n        /* \"#utility.yul\":10687:10819   */\n    tag_306:\n      pop\n        /* \"#utility.yul\":10833:10842   */\n      div\n      swap1\n        /* \"#utility.yul\":10631:10848   */\n      jump\t// out\n        /* \"#utility.yul\":10853:10981   */\n    tag_167:\n        /* \"#utility.yul\":10920:10929   */\n      dup2\n      dup2\n      sub\n        /* \"#utility.yul\":10941:10952   */\n      dup2\n      dup2\n      gt\n        /* \"#utility.yul\":10938:10975   */\n      iszero\n      tag_304\n      jumpi\n        /* \"#utility.yul\":10955:10973   */\n      tag_304\n      tag_225\n      jump\t// in\n        /* \"#utility.yul\":11330:11457   */\n    tag_192:\n        /* \"#utility.yul\":11391:11401   */\n      0x4e487b71\n        /* \"#utility.yul\":11386:11389   */\n      0xe0\n        /* \"#utility.yul\":11382:11402   */\n      shl\n        /* \"#utility.yul\":11379:11380   */\n      0x00\n        /* \"#utility.yul\":11372:11403   */\n      mstore\n        /* \"#utility.yul\":11422:11426   */\n      0x32\n        /* \"#utility.yul\":11419:11420   */\n      0x04\n        /* \"#utility.yul\":11412:11427   */\n      mstore\n        /* \"#utility.yul\":11446:11450   */\n      0x24\n        /* \"#utility.yul\":11443:11444   */\n      0x00\n        /* \"#utility.yul\":11436:11451   */\n      revert\n        /* \"#utility.yul\":11462:12893   */\n    tag_195:\n        /* \"#utility.yul\":11577:11580   */\n      dup2\n        /* \"#utility.yul\":11571:11575   */\n      dup2\n        /* \"#utility.yul\":11568:11581   */\n      sub\n        /* \"#utility.yul\":11565:11591   */\n      tag_313\n      jumpi\n        /* \"#utility.yul\":11584:11589   */\n      pop\n      pop\n        /* \"#utility.yul\":11462:12893   */\n      jump\t// out\n        /* \"#utility.yul\":11565:11591   */\n    tag_313:\n        /* \"#utility.yul\":11614:11651   */\n      tag_314\n        /* \"#utility.yul\":11646:11649   */\n      dup3\n        /* \"#utility.yul\":11640:11650   */\n      sload\n        /* \"#utility.yul\":11614:11651   */\n      tag_153\n      jump\t// in\n    tag_314:\n        /* \"#utility.yul\":11674:11692   */\n      0xffffffffffffffff\n        /* \"#utility.yul\":11666:11672   */\n      dup2\n        /* \"#utility.yul\":11663:11693   */\n      gt\n        /* \"#utility.yul\":11660:11716   */\n      iszero\n      tag_316\n      jumpi\n        /* \"#utility.yul\":11696:11714   */\n      tag_316\n      tag_220\n      jump\t// in\n    tag_316:\n        /* \"#utility.yul\":11725:11822   */\n      tag_317\n        /* \"#utility.yul\":11815:11821   */\n      dup2\n        /* \"#utility.yul\":11775:11813   */\n      tag_289\n        /* \"#utility.yul\":11807:11811   */\n      dup5\n        /* \"#utility.yul\":11801:11812   */\n      sload\n        /* \"#utility.yul\":11775:11813   */\n      tag_153\n      jump\t// in\n        /* \"#utility.yul\":11725:11822   */\n    tag_317:\n        /* \"#utility.yul\":11848:11849   */\n      0x00\n        /* \"#utility.yul\":11876:11878   */\n      0x1f\n        /* \"#utility.yul\":11868:11874   */\n      dup3\n        /* \"#utility.yul\":11865:11879   */\n      gt\n        /* \"#utility.yul\":11893:11894   */\n      0x01\n        /* \"#utility.yul\":11888:12636   */\n      dup2\n      eq\n      tag_320\n      jumpi\n        /* \"#utility.yul\":12680:12681   */\n      0x00\n        /* \"#utility.yul\":12697:12703   */\n      dup4\n        /* \"#utility.yul\":12694:12783   */\n      iszero\n      tag_321\n      jumpi\n      pop\n        /* \"#utility.yul\":12749:12768   */\n      dup5\n      dup3\n      add\n        /* \"#utility.yul\":12743:12769   */\n      sload\n        /* \"#utility.yul\":12694:12783   */\n    tag_321:\n      not(0x00)\n        /* \"#utility.yul\":8235:8236   */\n      0x03\n        /* \"#utility.yul\":8231:8242   */\n      dup6\n      swap1\n      shl\n        /* \"#utility.yul\":8227:8251   */\n      shr\n        /* \"#utility.yul\":8223:8252   */\n      not\n        /* \"#utility.yul\":8213:8253   */\n      and\n        /* \"#utility.yul\":8259:8260   */\n      0x01\n        /* \"#utility.yul\":8255:8266   */\n      dup5\n      swap1\n      shl\n        /* \"#utility.yul\":8210:8267   */\n      or\n        /* \"#utility.yul\":12796:12877   */\n      dup5\n      sstore\n        /* \"#utility.yul\":11858:12887   */\n      jump(tag_319)\n        /* \"#utility.yul\":11888:12636   */\n    tag_320:\n        /* \"#utility.yul\":7504:7505   */\n      0x00\n        /* \"#utility.yul\":7497:7511   */\n      dup6\n      dup2\n      mstore\n        /* \"#utility.yul\":7541:7545   */\n      0x20\n        /* \"#utility.yul\":7528:7546   */\n      swap1\n      keccak256\n      not(0x1f)\n        /* \"#utility.yul\":11924:11944   */\n      dup5\n      and\n      swap1\n        /* \"#utility.yul\":7504:7505   */\n      0x00\n        /* \"#utility.yul\":7497:7511   */\n      dup7\n      dup2\n      mstore\n        /* \"#utility.yul\":7541:7545   */\n      0x20\n        /* \"#utility.yul\":7528:7546   */\n      swap1\n      keccak256\n        /* \"#utility.yul\":12088:12097   */\n      dup5\n        /* \"#utility.yul\":12110:12361   */\n    tag_325:\n        /* \"#utility.yul\":12124:12131   */\n      dup4\n        /* \"#utility.yul\":12121:12122   */\n      dup2\n        /* \"#utility.yul\":12118:12132   */\n      lt\n        /* \"#utility.yul\":12110:12361   */\n      iszero\n      tag_327\n      jumpi\n        /* \"#utility.yul\":12206:12227   */\n      dup3\n      dup7\n      add\n        /* \"#utility.yul\":12200:12228   */\n      sload\n        /* \"#utility.yul\":12185:12229   */\n      dup3\n      sstore\n        /* \"#utility.yul\":12256:12257   */\n      0x01\n        /* \"#utility.yul\":12329:12347   */\n      swap6\n      dup7\n      add\n      swap6\n        /* \"#utility.yul\":12284:12299   */\n      swap1\n      swap2\n      add\n      swap1\n        /* \"#utility.yul\":12147:12151   */\n      0x20\n        /* \"#utility.yul\":12140:12152   */\n      add\n        /* \"#utility.yul\":12110:12361   */\n      jump(tag_325)\n    tag_327:\n        /* \"#utility.yul\":12114:12117   */\n      pop\n        /* \"#utility.yul\":12389:12395   */\n      dup6\n        /* \"#utility.yul\":12380:12387   */\n      dup4\n        /* \"#utility.yul\":12377:12396   */\n      lt\n        /* \"#utility.yul\":12374:12577   */\n      iszero\n      tag_328\n      jumpi\n        /* \"#utility.yul\":12450:12471   */\n      dup2\n      dup6\n      add\n        /* \"#utility.yul\":12444:12472   */\n      sload\n      not(0x00)\n        /* \"#utility.yul\":12535:12536   */\n      0x03\n        /* \"#utility.yul\":12531:12545   */\n      dup9\n      swap1\n      shl\n        /* \"#utility.yul\":12547:12550   */\n      0xf8\n        /* \"#utility.yul\":12527:12551   */\n      and\n        /* \"#utility.yul\":12523:12560   */\n      shr\n        /* \"#utility.yul\":12519:12561   */\n      not\n        /* \"#utility.yul\":12504:12562   */\n      and\n        /* \"#utility.yul\":12489:12563   */\n      dup2\n      sstore\n        /* \"#utility.yul\":12374:12577   */\n    tag_328:\n      pop\n      pop\n      pop\n        /* \"#utility.yul\":12623:12624   */\n      0x01\n        /* \"#utility.yul\":12614:12620   */\n      dup4\n        /* \"#utility.yul\":12611:12612   */\n      0x01\n        /* \"#utility.yul\":12607:12621   */\n      shl\n        /* \"#utility.yul\":12603:12625   */\n      add\n        /* \"#utility.yul\":12597:12601   */\n      dup5\n        /* \"#utility.yul\":12590:12626   */\n      sstore\n        /* \"#utility.yul\":11858:12887   */\n    tag_319:\n      pop\n      pop\n      pop\n        /* \"#utility.yul\":11462:12893   */\n      pop\n      pop\n      jump\t// out\n\n    auxdata: 0xa26469706673582212206d683906b635eecb7443f38b888be97cce1e75f68dfe2a65f254701dc8aa5eb764736f6c63430008110033\n}\n",
    "bytecode": {
      "linkReferences": {},
      "object": "608060405234801561001057600080fd5b50600180546001600160a01b031916331790556114a6806100326000396000f3fe6080604052600436106101445760003560e01c80634281cebf116100c05780638e4d505311610074578063cb6cbe8f11610059578063cb6cbe8f146103e2578063dfbf53ae14610402578063f82e15521461042657600080fd5b80638e4d5053146103a0578063c8f17094146103b357600080fd5b8063522e1177116100a5578063522e11771461033c5780635d73753f1461035d57806373d4a13a1461037e57600080fd5b80634281cebf146102ef578063481c6a751461030457600080fd5b8063200d2ed2116101175780632a4230e2116100fc5780632a4230e21461028b5780632d196a8e146102ab5780634051ddac146102cb57600080fd5b8063200d2ed2146101d857806328f6a48a1461027657600080fd5b80630a46572f1461014957806310d2f82f14610172578063164e68de146101a35780631e1769ed146101c5575b600080fd5b34801561015557600080fd5b5061015f60075481565b6040519081526020015b60405180910390f35b34801561017e57600080fd5b506101936001546001600160a01b0316331490565b6040519015158152602001610169565b3480156101af57600080fd5b506101c36101be366004610f3f565b610446565b005b6101c36101d3366004610f61565b6104ce565b3480156101e457600080fd5b50604080518082018252600a81527f636f6d706c6574653a20000000000000000000000000000000000000000000006020808301919091528251808401909352600983527f41776174696e673a20000000000000000000000000000000000000000000000090830152600154909160ff600160a81b8304811692600160a01b9004166040516101699493929190610fc0565b34801561028257600080fd5b5060025461015f565b34801561029757600080fd5b506101c36102a63660046110a4565b610666565b3480156102b757600080fd5b506101c36102c63660046110eb565b61089d565b3480156102d757600080fd5b506102e061094d565b60405161016993929190611139565b3480156102fb57600080fd5b506101c3610a08565b34801561031057600080fd5b50600154610324906001600160a01b031681565b6040516001600160a01b039091168152602001610169565b34801561034857600080fd5b5060015461019390600160a81b900460ff1681565b34801561036957600080fd5b5060015461019390600160a01b900460ff1681565b34801561038a57600080fd5b50610393610b25565b604051610169919061116b565b3480156103ac57600080fd5b504761015f565b3480156103bf57600080fd5b506103d36103ce366004610f61565b610bb3565b6040516101699392919061117e565b3480156103ee57600080fd5b506101c36103fd366004610f61565b610c75565b34801561040e57600080fd5b50610417610de9565b604051610169939291906111a6565b34801561043257600080fd5b50610417610441366004610f61565b610e0b565b6001546001600160a01b031633146104955760405162461bcd60e51b815260206004820152600d60248201526c1058d8d95cdcc811195b9a5959609a1b60448201526064015b60405180910390fd5b6040516001600160a01b038216904780156108fc02916000818181858888f193505050501580156104ca573d6000803e3d6000fd5b5050565b6004546001600160a01b031633146105285760405162461bcd60e51b815260206004820152601560248201527f4e6f7420617574686f72697a6564206269646465720000000000000000000000604482015260640161048c565b60085434101561057a5760405162461bcd60e51b815260206004820152601360248201527f696e73756666696369656e742066756e64732100000000000000000000000000604482015260640161048c565b60085481146105cb5760405162461bcd60e51b815260206004820152601c60248201527f76616c7565206973206e6f742077686174207761732061677265656400000000604482015260640161048c565b600180547fffffffffffffffffffff0000ffffffffffffffffffffffffffffffffffffffff16600160a81b17905560405133907fddb3e8e092f582b287e510e57287106c0231b91b97d25c5872442924378808e99061065b906020808252600c908201527f5061796d656e74206d6164650000000000000000000000000000000000000000604082015260600190565b60405180910390a250565b6001546001600160a01b0316330361067d57600080fd5b600154600160a81b900460ff161561069457600080fd5b60408051606081018252338152602081018481529181018381526002805460018101825560009190915282517f405787fa12a823e0f2b7631cc41b3ba8828b3321ca811111fa75cd3aa3bb5ace6003909202918201805473ffffffffffffffffffffffffffffffffffffffff19166001600160a01b0390921691909117815593517f405787fa12a823e0f2b7631cc41b3ba8828b3321ca811111fa75cd3aa3bb5acf82015590519192839290917f405787fa12a823e0f2b7631cc41b3ba8828b3321ca811111fa75cd3aa3bb5ad0019061076e9082611257565b505060408051606081018252600254815260208101868152918101858152600380546001810182556000829052835191027fc2575a0e9e593c00f959f8c92f12db2869c3395a3b0502d05e2516446f71f85b810191825593517fc2575a0e9e593c00f959f8c92f12db2869c3395a3b0502d05e2516446f71f85c8501559051919350839290917fc2575a0e9e593c00f959f8c92f12db2869c3395a3b0502d05e2516446f71f85d909101906108239082611257565b505050336001600160a01b03167fddb3e8e092f582b287e510e57287106c0231b91b97d25c5872442924378808e960405161088f9060208082526011908201527f437265617465642061206e657720626964000000000000000000000000000000604082015260600190565b60405180910390a250505050565b6001805473ffffffffffffffffffffffffffffffffffffffff19166001600160a01b03831617905560006108d18382611257565b506001546040516001600160a01b03909116907fddb3e8e092f582b287e510e57287106c0231b91b97d25c5872442924378808e9906109419060208082526010908201527f4372656174656420612074656e64657200000000000000000000000000000000604082015260600190565b60405180910390a25050565b600060606000600160009054906101000a90046001600160a01b0316600060028054905081805461097d906111ce565b80601f01602080910402602001604051908101604052809291908181526020018280546109a9906111ce565b80156109f65780601f106109cb576101008083540402835291602001916109f6565b820191906000526020600020905b8154815290600101906020018083116109d957829003601f168201915b50505050509150925092509250909192565b6001546001600160a01b03163314610a525760405162461bcd60e51b815260206004820152600d60248201526c1058d8d95cdcc811195b9a5959609a1b604482015260640161048c565b60646008546003610a63919061132d565b610a6d919061134a565b610a77904761136c565b506001546040516001600160a01b03909116904780156108fc02916000818181858888f19350505050158015610ab1573d6000803e3d6000fd5b50336001600160a01b03167fddb3e8e092f582b287e510e57287106c0231b91b97d25c5872442924378808e9604051610b1b906020808252600f908201527f436c61696d6564207061796d656e740000000000000000000000000000000000604082015260600190565b60405180910390a2565b60008054610b32906111ce565b80601f0160208091040260200160405190810160405280929190818152602001828054610b5e906111ce565b8015610bab5780601f10610b8057610100808354040283529160200191610bab565b820191906000526020600020905b815481529060010190602001808311610b8e57829003601f168201915b505050505081565b60038181548110610bc357600080fd5b9060005260206000209060030201600091509050806000015490806001015490806002018054610bf2906111ce565b80601f0160208091040260200160405190810160405280929190818152602001828054610c1e906111ce565b8015610c6b5780601f10610c4057610100808354040283529160200191610c6b565b820191906000526020600020905b815481529060010190602001808311610c4e57829003601f168201915b5050505050905083565b6001546001600160a01b03163314610cbf5760405162461bcd60e51b815260206004820152600d60248201526c1058d8d95cdcc811195b9a5959609a1b604482015260640161048c565b600154600160a81b900460ff1615610cd657600080fd5b60028181548110610ce957610ce961137f565b6000918252602090912060039091020180546004805473ffffffffffffffffffffffffffffffffffffffff19166001600160a01b0390921691909117815560018201546005556006610d3e6002840182611395565b5050506007819055600554600855600180547fffffffffffffffffffffff00ffffffffffffffffffffffffffffffffffffffff16600160a01b1790556004546040516001600160a01b03909116907fddb3e8e092f582b287e510e57287106c0231b91b97d25c5872442924378808e99061065b906020808252600a908201527f417574686f72697a656400000000000000000000000000000000000000000000604082015260600190565b60048054600554600680546001600160a01b03909316939192610bf2906111ce565b600080606060028481548110610e2357610e2361137f565b6000918252602090912060039091020154600280546001600160a01b039092169186908110610e5457610e5461137f565b90600052602060002090600302016001015460028681548110610e7957610e7961137f565b9060005260206000209060030201600201808054610e96906111ce565b80601f0160208091040260200160405190810160405280929190818152602001828054610ec2906111ce565b8015610f0f5780601f10610ee457610100808354040283529160200191610f0f565b820191906000526020600020905b815481529060010190602001808311610ef257829003601f168201915b505050505090509250925092509193909250565b80356001600160a01b0381168114610f3a57600080fd5b919050565b600060208284031215610f5157600080fd5b610f5a82610f23565b9392505050565b600060208284031215610f7357600080fd5b5035919050565b6000815180845260005b81811015610fa057602081850181015186830182015201610f84565b506000602082860101526020601f19601f83011685010191505092915050565b608081526000610fd36080830187610f7a565b85151560208401528281036040840152610fed8186610f7a565b915050821515606083015295945050505050565b634e487b7160e01b600052604160045260246000fd5b600082601f83011261102857600080fd5b813567ffffffffffffffff8082111561104357611043611001565b604051601f8301601f19908116603f0116810190828211818310171561106b5761106b611001565b8160405283815286602085880101111561108457600080fd5b836020870160208301376000602085830101528094505050505092915050565b600080604083850312156110b757600080fd5b82359150602083013567ffffffffffffffff8111156110d557600080fd5b6110e185828601611017565b9150509250929050565b600080604083850312156110fe57600080fd5b823567ffffffffffffffff81111561111557600080fd5b61112185828601611017565b92505061113060208401610f23565b90509250929050565b6001600160a01b038416815260606020820152600061115b6060830185610f7a565b9050826040830152949350505050565b602081526000610f5a6020830184610f7a565b83815282602082015260606040820152600061119d6060830184610f7a565b95945050505050565b6001600160a01b038416815282602082015260606040820152600061119d6060830184610f7a565b600181811c908216806111e257607f821691505b60208210810361120257634e487b7160e01b600052602260045260246000fd5b50919050565b601f82111561125257600081815260208120601f850160051c8101602086101561122f5750805b601f850160051c820191505b8181101561124e5782815560010161123b565b5050505b505050565b815167ffffffffffffffff81111561127157611271611001565b6112858161127f84546111ce565b84611208565b602080601f8311600181146112ba57600084156112a25750858301515b600019600386901b1c1916600185901b17855561124e565b600085815260208120601f198616915b828110156112e9578886015182559484019460019091019084016112ca565b50858210156113075787850151600019600388901b60f8161c191681555b5050505050600190811b01905550565b634e487b7160e01b600052601160045260246000fd5b808202811582820484141761134457611344611317565b92915050565b60008261136757634e487b7160e01b600052601260045260246000fd5b500490565b8181038181111561134457611344611317565b634e487b7160e01b600052603260045260246000fd5b8181036113a0575050565b6113aa82546111ce565b67ffffffffffffffff8111156113c2576113c2611001565b6113d08161127f84546111ce565b6000601f82116001811461140457600083156113ec5750848201545b600019600385901b1c1916600184901b178455611469565b600085815260209020601f19841690600086815260209020845b8381101561143e578286015482556001958601959091019060200161141e565b508583101561145c5781850154600019600388901b60f8161c191681555b50505060018360011b0184555b505050505056fea26469706673582212206d683906b635eecb7443f38b888be97cce1e75f68dfe2a65f254701dc8aa5eb764736f6c63430008110033",
      "opcodes": "PUSH1 0x80 PUSH1 0x40 MSTORE CALLVALUE DUP1 ISZERO PUSH2 0x10 JUMPI PUSH1 0x0 DUP1 REVERT JUMPDEST POP PUSH1 0x1 DUP1 SLOAD PUSH1 0x1 PUSH1 0x1 PUSH1 0xA0 SHL SUB NOT AND CALLER OR SWAP1 SSTORE PUSH2 0x14A6 DUP1 PUSH2 0x32 PUSH1 0x0 CODECOPY PUSH1 0x0 RETURN INVALID PUSH1 0x80 PUSH1 0x40 MSTORE PUSH1 0x4 CALLDATASIZE LT PUSH2 0x144 JUMPI PUSH1 0x0 CALLDATALOAD PUSH1 0xE0 SHR DUP1 PUSH4 0x4281CEBF GT PUSH2 0xC0 JUMPI DUP1 PUSH4 0x8E4D5053 GT PUSH2 0x74 JUMPI DUP1 PUSH4 0xCB6CBE8F GT PUSH2 0x59 JUMPI DUP1 PUSH4 0xCB6CBE8F EQ PUSH2 0x3E2 JUMPI DUP1 PUSH4 0xDFBF53AE EQ PUSH2 0x402 JUMPI DUP1 PUSH4 0xF82E1552 EQ PUSH2 0x426 JUMPI PUSH1 0x0 DUP1 REVERT JUMPDEST DUP1 PUSH4 0x8E4D5053 EQ PUSH2 0x3A0 JUMPI DUP1 PUSH4 0xC8F17094 EQ PUSH2 0x3B3 JUMPI PUSH1 0x0 DUP1 REVERT JUMPDEST DUP1 PUSH4 0x522E1177 GT PUSH2 0xA5 JUMPI DUP1 PUSH4 0x522E1177 EQ PUSH2 0x33C JUMPI DUP1 PUSH4 0x5D73753F EQ PUSH2 0x35D JUMPI DUP1 PUSH4 0x73D4A13A EQ PUSH2 0x37E JUMPI PUSH1 0x0 DUP1 REVERT JUMPDEST DUP1 PUSH4 0x4281CEBF EQ PUSH2 0x2EF JUMPI DUP1 PUSH4 0x481C6A75 EQ PUSH2 0x304 JUMPI PUSH1 0x0 DUP1 REVERT JUMPDEST DUP1 PUSH4 0x200D2ED2 GT PUSH2 0x117 JUMPI DUP1 PUSH4 0x2A4230E2 GT PUSH2 0xFC JUMPI DUP1 PUSH4 0x2A4230E2 EQ PUSH2 0x28B JUMPI DUP1 PUSH4 0x2D196A8E EQ PUSH2 0x2AB JUMPI DUP1 PUSH4 0x4051DDAC EQ PUSH2 0x2CB JUMPI PUSH1 0x0 DUP1 REVERT JUMPDEST DUP1 PUSH4 0x200D2ED2 EQ PUSH2 0x1D8 JUMPI DUP1 PUSH4 0x28F6A48A EQ PUSH2 0x276 JUMPI PUSH1 0x0 DUP1 REVERT JUMPDEST DUP1 PUSH4 0xA46572F EQ PUSH2 0x149 JUMPI DUP1 PUSH4 0x10D2F82F EQ PUSH2 0x172 JUMPI DUP1 PUSH4 0x164E68DE EQ PUSH2 0x1A3 JUMPI DUP1 PUSH4 0x1E1769ED EQ PUSH2 0x1C5 JUMPI JUMPDEST PUSH1 0x0 DUP1 REVERT JUMPDEST CALLVALUE DUP1 ISZERO PUSH2 0x155 JUMPI PUSH1 0x0 DUP1 REVERT JUMPDEST POP PUSH2 0x15F PUSH1 0x7 SLOAD DUP2 JUMP JUMPDEST PUSH1 0x40 MLOAD SWAP1 DUP2 MSTORE PUSH1 0x20 ADD JUMPDEST PUSH1 0x40 MLOAD DUP1 SWAP2 SUB SWAP1 RETURN JUMPDEST CALLVALUE DUP1 ISZERO PUSH2 0x17E JUMPI PUSH1 0x0 DUP1 REVERT JUMPDEST POP PUSH2 0x193 PUSH1 0x1 SLOAD PUSH1 0x1 PUSH1 0x1 PUSH1 0xA0 SHL SUB AND CALLER EQ SWAP1 JUMP JUMPDEST PUSH1 0x40 MLOAD SWAP1 ISZERO ISZERO DUP2 MSTORE PUSH1 0x20 ADD PUSH2 0x169 JUMP JUMPDEST CALLVALUE DUP1 ISZERO PUSH2 0x1AF JUMPI PUSH1 0x0 DUP1 REVERT JUMPDEST POP PUSH2 0x1C3 PUSH2 0x1BE CALLDATASIZE PUSH1 0x4 PUSH2 0xF3F JUMP JUMPDEST PUSH2 0x446 JUMP JUMPDEST STOP JUMPDEST PUSH2 0x1C3 PUSH2 0x1D3 CALLDATASIZE PUSH1 0x4 PUSH2 0xF61 JUMP JUMPDEST PUSH2 0x4CE JUMP JUMPDEST CALLVALUE DUP1 ISZERO PUSH2 0x1E4 JUMPI PUSH1 0x0 DUP1 REVERT JUMPDEST POP PUSH1 0x40 DUP1 MLOAD DUP1 DUP3 ADD DUP3 MSTORE PUSH1 0xA DUP2 MSTORE PUSH32 0x636F6D706C6574653A2000000000000000000000000000000000000000000000 PUSH1 0x20 DUP1 DUP4 ADD SWAP2 SWAP1 SWAP2 MSTORE DUP3 MLOAD DUP1 DUP5 ADD SWAP1 SWAP4 MSTORE PUSH1 0x9 DUP4 MSTORE PUSH32 0x41776174696E673A200000000000000000000000000000000000000000000000 SWAP1 DUP4 ADD MSTORE PUSH1 0x1 SLOAD SWAP1 SWAP2 PUSH1 0xFF PUSH1 0x1 PUSH1 0xA8 SHL DUP4 DIV DUP2 AND SWAP3 PUSH1 0x1 PUSH1 0xA0 SHL SWAP1 DIV AND PUSH1 0x40 MLOAD PUSH2 0x169 SWAP5 SWAP4 SWAP3 SWAP2 SWAP1 PUSH2 0xFC0 JUMP JUMPDEST CALLVALUE DUP1 ISZERO PUSH2 0x282 JUMPI PUSH1 0x0 DUP1 REVERT JUMPDEST POP PUSH1 0x2 SLOAD PUSH2 0x15F JUMP JUMPDEST CALLVALUE DUP1 ISZERO PUSH2 0x297 JUMPI PUSH1 0x0 DUP1 REVERT JUMPDEST POP PUSH2 0x1C3 PUSH2 0x2A6 CALLDATASIZE PUSH1 0x4 PUSH2 0x10A4 JUMP JUMPDEST PUSH2 0x666 JUMP JUMPDEST CALLVALUE DUP1 ISZERO PUSH2 0x2B7 JUMPI PUSH1 0x0 DUP1 REVERT JUMPDEST POP PUSH2 0x1C3 PUSH2 0x2C6 CALLDATASIZE PUSH1 0x4 PUSH2 0x10EB JUMP JUMPDEST PUSH2 0x89D JUMP JUMPDEST CALLVALUE DUP1 ISZERO PUSH2 0x2D7 JUMPI PUSH1 0x0 DUP1 REVERT JUMPDEST POP PUSH2 0x2E0 PUSH2 0x94D JUMP JUMPDEST PUSH1 0x40 MLOAD PUSH2 0x169 SWAP4 SWAP3 SWAP2 SWAP1 PUSH2 0x1139 JUMP JUMPDEST CALLVALUE DUP1 ISZERO PUSH2 0x2FB JUMPI PUSH1 0x0 DUP1 REVERT JUMPDEST POP PUSH2 0x1C3 PUSH2 0xA08 JUMP JUMPDEST CALLVALUE DUP1 ISZERO PUSH2 0x310 JUMPI PUSH1 0x0 DUP1 REVERT JUMPDEST POP PUSH1 0x1 SLOAD PUSH2 0x324 SWAP1 PUSH1 0x1 PUSH1 0x1 PUSH1 0xA0 SHL SUB AND DUP2 JUMP JUMPDEST PUSH1 0x40 MLOAD PUSH1 0x1 PUSH1 0x1 PUSH1 0xA0 SHL SUB SWAP1 SWAP2 AND DUP2 MSTORE PUSH1 0x20 ADD PUSH2 0x169 JUMP JUMPDEST CALLVALUE DUP1 ISZERO PUSH2 0x348 JUMPI PUSH1 0x0 DUP1 REVERT JUMPDEST POP PUSH1 0x1 SLOAD PUSH2 0x193 SWAP1 PUSH1 0x1 PUSH1 0xA8 SHL SWAP1 DIV PUSH1 0xFF AND DUP2 JUMP JUMPDEST CALLVALUE DUP1 ISZERO PUSH2 0x369 JUMPI PUSH1 0x0 DUP1 REVERT JUMPDEST POP PUSH1 0x1 SLOAD PUSH2 0x193 SWAP1 PUSH1 0x1 PUSH1 0xA0 SHL SWAP1 DIV PUSH1 0xFF AND DUP2 JUMP JUMPDEST CALLVALUE DUP1 ISZERO PUSH2 0x38A JUMPI PUSH1 0x0 DUP1 REVERT JUMPDEST POP PUSH2 0x393 PUSH2 0xB25 JUMP JUMPDEST PUSH1 0x40 MLOAD PUSH2 0x169 SWAP2 SWAP1 PUSH2 0x116B JUMP JUMPDEST CALLVALUE DUP1 ISZERO PUSH2 0x3AC JUMPI PUSH1 0x0 DUP1 REVERT JUMPDEST POP SELFBALANCE PUSH2 0x15F JUMP JUMPDEST CALLVALUE DUP1 ISZERO PUSH2 0x3BF JUMPI PUSH1 0x0 DUP1 REVERT JUMPDEST POP PUSH2 0x3D3 PUSH2 0x3CE CALLDATASIZE PUSH1 0x4 PUSH2 0xF61 JUMP JUMPDEST PUSH2 0xBB3 JUMP JUMPDEST PUSH1 0x40 MLOAD PUSH2 0x169 SWAP4 SWAP3 SWAP2 SWAP1 PUSH2 0x117E JUMP JUMPDEST CALLVALUE DUP1 ISZERO PUSH2 0x3EE JUMPI PUSH1 0x0 DUP1 REVERT JUMPDEST POP PUSH2 0x1C3 PUSH2 0x3FD CALLDATASIZE PUSH1 0x4 PUSH2 0xF61 JUMP JUMPDEST PUSH2 0xC75 JUMP JUMPDEST CALLVALUE DUP1 ISZERO PUSH2 0x40E JUMPI PUSH1 0x0 DUP1 REVERT JUMPDEST POP PUSH2 0x417 PUSH2 0xDE9 JUMP JUMPDEST PUSH1 0x40 MLOAD PUSH2 0x169 SWAP4 SWAP3 SWAP2 SWAP1 PUSH2 0x11A6 JUMP JUMPDEST CALLVALUE DUP1 ISZERO PUSH2 0x432 JUMPI PUSH1 0x0 DUP1 REVERT JUMPDEST POP PUSH2 0x417 PUSH2 0x441 CALLDATASIZE PUSH1 0x4 PUSH2 0xF61 JUMP JUMPDEST PUSH2 0xE0B JUMP JUMPDEST PUSH1 0x1 SLOAD PUSH1 0x1 PUSH1 0x1 PUSH1 0xA0 SHL SUB AND CALLER EQ PUSH2 0x495 JUMPI PUSH1 0x40 MLOAD PUSH3 0x461BCD PUSH1 0xE5 SHL DUP2 MSTORE PUSH1 0x20 PUSH1 0x4 DUP3 ADD MSTORE PUSH1 0xD PUSH1 0x24 DUP3 ADD MSTORE PUSH13 0x1058D8D95CDCC811195B9A5959 PUSH1 0x9A SHL PUSH1 0x44 DUP3 ADD MSTORE PUSH1 0x64 ADD JUMPDEST PUSH1 0x40 MLOAD DUP1 SWAP2 SUB SWAP1 REVERT JUMPDEST PUSH1 0x40 MLOAD PUSH1 0x1 PUSH1 0x1 PUSH1 0xA0 SHL SUB DUP3 AND SWAP1 SELFBALANCE DUP1 ISZERO PUSH2 0x8FC MUL SWAP2 PUSH1 0x0 DUP2 DUP2 DUP2 DUP6 DUP9 DUP9 CALL SWAP4 POP POP POP POP ISZERO DUP1 ISZERO PUSH2 0x4CA JUMPI RETURNDATASIZE PUSH1 0x0 DUP1 RETURNDATACOPY RETURNDATASIZE PUSH1 0x0 REVERT JUMPDEST POP POP JUMP JUMPDEST PUSH1 0x4 SLOAD PUSH1 0x1 PUSH1 0x1 PUSH1 0xA0 SHL SUB AND CALLER EQ PUSH2 0x528 JUMPI PUSH1 0x40 MLOAD PUSH3 0x461BCD PUSH1 0xE5 SHL DUP2 MSTORE PUSH1 0x20 PUSH1 0x4 DUP3 ADD MSTORE PUSH1 0x15 PUSH1 0x24 DUP3 ADD MSTORE PUSH32 0x4E6F7420617574686F72697A6564206269646465720000000000000000000000 PUSH1 0x44 DUP3 ADD MSTORE PUSH1 0x64 ADD PUSH2 0x48C JUMP JUMPDEST PUSH1 0x8 SLOAD CALLVALUE LT ISZERO PUSH2 0x57A JUMPI PUSH1 0x40 MLOAD PUSH3 0x461BCD PUSH1 0xE5 SHL DUP2 MSTORE PUSH1 0x20 PUSH1 0x4 DUP3 ADD MSTORE PUSH1 0x13 PUSH1 0x24 DUP3 ADD MSTORE PUSH32 0x696E73756666696369656E742066756E64732100000000000000000000000000 PUSH1 0x44 DUP3 ADD MSTORE PUSH1 0x64 ADD PUSH2 0x48C JUMP JUMPDEST PUSH1 0x8 SLOAD DUP2 EQ PUSH2 0x5CB JUMPI PUSH1 0x40 MLOAD PUSH3 0x461BCD PUSH1 0xE5 SHL DUP2 MSTORE PUSH1 0x20 PUSH1 0x4 DUP3 ADD MSTORE PUSH1 0x1C PUSH1 0x24 DUP3 ADD MSTORE PUSH32 0x76616C7565206973206E6F742077686174207761732061677265656400000000 PUSH1 0x44 DUP3 ADD MSTORE PUSH1 0x64 ADD PUSH2 0x48C JUMP JUMPDEST PUSH1 0x1 DUP1 SLOAD PUSH32 0xFFFFFFFFFFFFFFFFFFFF0000FFFFFFFFFFFFFFFFFFFFFFFFFFFFFFFFFFFFFFFF AND PUSH1 0x1 PUSH1 0xA8 SHL OR SWAP1 SSTORE PUSH1 0x40 MLOAD CALLER SWAP1 PUSH32 0xDDB3E8E092F582B287E510E57287106C0231B91B97D25C5872442924378808E9 SWAP1 PUSH2 0x65B SWAP1 PUSH1 0x20 DUP1 DUP3 MSTORE PUSH1 0xC SWAP1 DUP3 ADD MSTORE PUSH32 0x5061796D656E74206D6164650000000000000000000000000000000000000000 PUSH1 0x40 DUP3 ADD MSTORE PUSH1 0x60 ADD SWAP1 JUMP JUMPDEST PUSH1 0x40 MLOAD DUP1 SWAP2 SUB SWAP1 LOG2 POP JUMP JUMPDEST PUSH1 0x1 SLOAD PUSH1 0x1 PUSH1 0x1 PUSH1 0xA0 SHL SUB AND CALLER SUB PUSH2 0x67D JUMPI PUSH1 0x0 DUP1 REVERT JUMPDEST PUSH1 0x1 SLOAD PUSH1 0x1 PUSH1 0xA8 SHL SWAP1 DIV PUSH1 0xFF AND ISZERO PUSH2 0x694 JUMPI PUSH1 0x0 DUP1 REVERT JUMPDEST PUSH1 0x40 DUP1 MLOAD PUSH1 0x60 DUP2 ADD DUP3 MSTORE CALLER DUP2 MSTORE PUSH1 0x20 DUP2 ADD DUP5 DUP2 MSTORE SWAP2 DUP2 ADD DUP4 DUP2 MSTORE PUSH1 0x2 DUP1 SLOAD PUSH1 0x1 DUP2 ADD DUP3 SSTORE PUSH1 0x0 SWAP2 SWAP1 SWAP2 MSTORE DUP3 MLOAD PUSH32 0x405787FA12A823E0F2B7631CC41B3BA8828B3321CA811111FA75CD3AA3BB5ACE PUSH1 0x3 SWAP1 SWAP3 MUL SWAP2 DUP3 ADD DUP1 SLOAD PUSH20 0xFFFFFFFFFFFFFFFFFFFFFFFFFFFFFFFFFFFFFFFF NOT AND PUSH1 0x1 PUSH1 0x1 PUSH1 0xA0 SHL SUB SWAP1 SWAP3 AND SWAP2 SWAP1 SWAP2 OR DUP2 SSTORE SWAP4 MLOAD PUSH32 0x405787FA12A823E0F2B7631CC41B3BA8828B3321CA811111FA75CD3AA3BB5ACF DUP3 ADD SSTORE SWAP1 MLOAD SWAP2 SWAP3 DUP4 SWAP3 SWAP1 SWAP2 PUSH32 0x405787FA12A823E0F2B7631CC41B3BA8828B3321CA811111FA75CD3AA3BB5AD0 ADD SWAP1 PUSH2 0x76E SWAP1 DUP3 PUSH2 0x1257 JUMP JUMPDEST POP POP PUSH1 0x40 DUP1 MLOAD PUSH1 0x60 DUP2 ADD DUP3 MSTORE PUSH1 0x2 SLOAD DUP2 MSTORE PUSH1 0x20 DUP2 ADD DUP7 DUP2 MSTORE SWAP2 DUP2 ADD DUP6 DUP2 MSTORE PUSH1 0x3 DUP1 SLOAD PUSH1 0x1 DUP2 ADD DUP3 SSTORE PUSH1 0x0 DUP3 SWAP1 MSTORE DUP4 MLOAD SWAP2 MUL PUSH32 0xC2575A0E9E593C00F959F8C92F12DB2869C3395A3B0502D05E2516446F71F85B DUP2 ADD SWAP2 DUP3 SSTORE SWAP4 MLOAD PUSH32 0xC2575A0E9E593C00F959F8C92F12DB2869C3395A3B0502D05E2516446F71F85C DUP6 ADD SSTORE SWAP1 MLOAD SWAP2 SWAP4 POP DUP4 SWAP3 SWAP1 SWAP2 PUSH32 0xC2575A0E9E593C00F959F8C92F12DB2869C3395A3B0502D05E2516446F71F85D SWAP1 SWAP2 ADD SWAP1 PUSH2 0x823 SWAP1 DUP3 PUSH2 0x1257 JUMP JUMPDEST POP POP POP CALLER PUSH1 0x1 PUSH1 0x1 PUSH1 0xA0 SHL SUB AND PUSH32 0xDDB3E8E092F582B287E510E57287106C0231B91B97D25C5872442924378808E9 PUSH1 0x40 MLOAD PUSH2 0x88F SWAP1 PUSH1 0x20 DUP1 DUP3 MSTORE PUSH1 0x11 SWAP1 DUP3 ADD MSTORE PUSH32 0x437265617465642061206E657720626964000000000000000000000000000000 PUSH1 0x40 DUP3 ADD MSTORE PUSH1 0x60 ADD SWAP1 JUMP JUMPDEST PUSH1 0x40 MLOAD DUP1 SWAP2 SUB SWAP1 LOG2 POP POP POP POP JUMP JUMPDEST PUSH1 0x1 DUP1 SLOAD PUSH20 0xFFFFFFFFFFFFFFFFFFFFFFFFFFFFFFFFFFFFFFFF NOT AND PUSH1 0x1 PUSH1 0x1 PUSH1 0xA0 SHL SUB DUP4 AND OR SWAP1 SSTORE PUSH1 0x0 PUSH2 0x8D1 DUP4 DUP3 PUSH2 0x1257 JUMP JUMPDEST POP PUSH1 0x1 SLOAD PUSH1 0x40 MLOAD PUSH1 0x1 PUSH1 0x1 PUSH1 0xA0 SHL SUB SWAP1 SWAP2 AND SWAP1 PUSH32 0xDDB3E8E092F582B287E510E57287106C0231B91B97D25C5872442924378808E9 SWAP1 PUSH2 0x941 SWAP1 PUSH1 0x20 DUP1 DUP3 MSTORE PUSH1 0x10 SWAP1 DUP3 ADD MSTORE PUSH32 0x4372656174656420612074656E64657200000000000000000000000000000000 PUSH1 0x40 DUP3 ADD MSTORE PUSH1 0x60 ADD SWAP1 JUMP JUMPDEST PUSH1 0x40 MLOAD DUP1 SWAP2 SUB SWAP1 LOG2 POP POP JUMP JUMPDEST PUSH1 0x0 PUSH1 0x60 PUSH1 0x0 PUSH1 0x1 PUSH1 0x0 SWAP1 SLOAD SWAP1 PUSH2 0x100 EXP SWAP1 DIV PUSH1 0x1 PUSH1 0x1 PUSH1 0xA0 SHL SUB AND PUSH1 0x0 PUSH1 0x2 DUP1 SLOAD SWAP1 POP DUP2 DUP1 SLOAD PUSH2 0x97D SWAP1 PUSH2 0x11CE JUMP JUMPDEST DUP1 PUSH1 0x1F ADD PUSH1 0x20 DUP1 SWAP2 DIV MUL PUSH1 0x20 ADD PUSH1 0x40 MLOAD SWAP1 DUP2 ADD PUSH1 0x40 MSTORE DUP1 SWAP3 SWAP2 SWAP1 DUP2 DUP2 MSTORE PUSH1 0x20 ADD DUP3 DUP1 SLOAD PUSH2 0x9A9 SWAP1 PUSH2 0x11CE JUMP JUMPDEST DUP1 ISZERO PUSH2 0x9F6 JUMPI DUP1 PUSH1 0x1F LT PUSH2 0x9CB JUMPI PUSH2 0x100 DUP1 DUP4 SLOAD DIV MUL DUP4 MSTORE SWAP2 PUSH1 0x20 ADD SWAP2 PUSH2 0x9F6 JUMP JUMPDEST DUP3 ADD SWAP2 SWAP1 PUSH1 0x0 MSTORE PUSH1 0x20 PUSH1 0x0 KECCAK256 SWAP1 JUMPDEST DUP2 SLOAD DUP2 MSTORE SWAP1 PUSH1 0x1 ADD SWAP1 PUSH1 0x20 ADD DUP1 DUP4 GT PUSH2 0x9D9 JUMPI DUP3 SWAP1 SUB PUSH1 0x1F AND DUP3 ADD SWAP2 JUMPDEST POP POP POP POP POP SWAP2 POP SWAP3 POP SWAP3 POP SWAP3 POP SWAP1 SWAP2 SWAP3 JUMP JUMPDEST PUSH1 0x1 SLOAD PUSH1 0x1 PUSH1 0x1 PUSH1 0xA0 SHL SUB AND CALLER EQ PUSH2 0xA52 JUMPI PUSH1 0x40 MLOAD PUSH3 0x461BCD PUSH1 0xE5 SHL DUP2 MSTORE PUSH1 0x20 PUSH1 0x4 DUP3 ADD MSTORE PUSH1 0xD PUSH1 0x24 DUP3 ADD MSTORE PUSH13 0x1058D8D95CDCC811195B9A5959 PUSH1 0x9A SHL PUSH1 0x44 DUP3 ADD MSTORE PUSH1 0x64 ADD PUSH2 0x48C JUMP JUMPDEST PUSH1 0x64 PUSH1 0x8 SLOAD PUSH1 0x3 PUSH2 0xA63 SWAP2 SWAP1 PUSH2 0x132D JUMP JUMPDEST PUSH2 0xA6D SWAP2 SWAP1 PUSH2 0x134A JUMP JUMPDEST PUSH2 0xA77 SWAP1 SELFBALANCE PUSH2 0x136C JUMP JUMPDEST POP PUSH1 0x1 SLOAD PUSH1 0x40 MLOAD PUSH1 0x1 PUSH1 0x1 PUSH1 0xA0 SHL SUB SWAP1 SWAP2 AND SWAP1 SELFBALANCE DUP1 ISZERO PUSH2 0x8FC MUL SWAP2 PUSH1 0x0 DUP2 DUP2 DUP2 DUP6 DUP9 DUP9 CALL SWAP4 POP POP POP POP ISZERO DUP1 ISZERO PUSH2 0xAB1 JUMPI RETURNDATASIZE PUSH1 0x0 DUP1 RETURNDATACOPY RETURNDATASIZE PUSH1 0x0 REVERT JUMPDEST POP CALLER PUSH1 0x1 PUSH1 0x1 PUSH1 0xA0 SHL SUB AND PUSH32 0xDDB3E8E092F582B287E510E57287106C0231B91B97D25C5872442924378808E9 PUSH1 0x40 MLOAD PUSH2 0xB1B SWAP1 PUSH1 0x20 DUP1 DUP3 MSTORE PUSH1 0xF SWAP1 DUP3 ADD MSTORE PUSH32 0x436C61696D6564207061796D656E740000000000000000000000000000000000 PUSH1 0x40 DUP3 ADD MSTORE PUSH1 0x60 ADD SWAP1 JUMP JUMPDEST PUSH1 0x40 MLOAD DUP1 SWAP2 SUB SWAP1 LOG2 JUMP JUMPDEST PUSH1 0x0 DUP1 SLOAD PUSH2 0xB32 SWAP1 PUSH2 0x11CE JUMP JUMPDEST DUP1 PUSH1 0x1F ADD PUSH1 0x20 DUP1 SWAP2 DIV MUL PUSH1 0x20 ADD PUSH1 0x40 MLOAD SWAP1 DUP2 ADD PUSH1 0x40 MSTORE DUP1 SWAP3 SWAP2 SWAP1 DUP2 DUP2 MSTORE PUSH1 0x20 ADD DUP3 DUP1 SLOAD PUSH2 0xB5E SWAP1 PUSH2 0x11CE JUMP JUMPDEST DUP1 ISZERO PUSH2 0xBAB JUMPI DUP1 PUSH1 0x1F LT PUSH2 0xB80 JUMPI PUSH2 0x100 DUP1 DUP4 SLOAD DIV MUL DUP4 MSTORE SWAP2 PUSH1 0x20 ADD SWAP2 PUSH2 0xBAB JUMP JUMPDEST DUP3 ADD SWAP2 SWAP1 PUSH1 0x0 MSTORE PUSH1 0x20 PUSH1 0x0 KECCAK256 SWAP1 JUMPDEST DUP2 SLOAD DUP2 MSTORE SWAP1 PUSH1 0x1 ADD SWAP1 PUSH1 0x20 ADD DUP1 DUP4 GT PUSH2 0xB8E JUMPI DUP3 SWAP1 SUB PUSH1 0x1F AND DUP3 ADD SWAP2 JUMPDEST POP POP POP POP POP DUP2 JUMP JUMPDEST PUSH1 0x3 DUP2 DUP2 SLOAD DUP2 LT PUSH2 0xBC3 JUMPI PUSH1 0x0 DUP1 REVERT JUMPDEST SWAP1 PUSH1 0x0 MSTORE PUSH1 0x20 PUSH1 0x0 KECCAK256 SWAP1 PUSH1 0x3 MUL ADD PUSH1 0x0 SWAP2 POP SWAP1 POP DUP1 PUSH1 0x0 ADD SLOAD SWAP1 DUP1 PUSH1 0x1 ADD SLOAD SWAP1 DUP1 PUSH1 0x2 ADD DUP1 SLOAD PUSH2 0xBF2 SWAP1 PUSH2 0x11CE JUMP JUMPDEST DUP1 PUSH1 0x1F ADD PUSH1 0x20 DUP1 SWAP2 DIV MUL PUSH1 0x20 ADD PUSH1 0x40 MLOAD SWAP1 DUP2 ADD PUSH1 0x40 MSTORE DUP1 SWAP3 SWAP2 SWAP1 DUP2 DUP2 MSTORE PUSH1 0x20 ADD DUP3 DUP1 SLOAD PUSH2 0xC1E SWAP1 PUSH2 0x11CE JUMP JUMPDEST DUP1 ISZERO PUSH2 0xC6B JUMPI DUP1 PUSH1 0x1F LT PUSH2 0xC40 JUMPI PUSH2 0x100 DUP1 DUP4 SLOAD DIV MUL DUP4 MSTORE SWAP2 PUSH1 0x20 ADD SWAP2 PUSH2 0xC6B JUMP JUMPDEST DUP3 ADD SWAP2 SWAP1 PUSH1 0x0 MSTORE PUSH1 0x20 PUSH1 0x0 KECCAK256 SWAP1 JUMPDEST DUP2 SLOAD DUP2 MSTORE SWAP1 PUSH1 0x1 ADD SWAP1 PUSH1 0x20 ADD DUP1 DUP4 GT PUSH2 0xC4E JUMPI DUP3 SWAP1 SUB PUSH1 0x1F AND DUP3 ADD SWAP2 JUMPDEST POP POP POP POP POP SWAP1 POP DUP4 JUMP JUMPDEST PUSH1 0x1 SLOAD PUSH1 0x1 PUSH1 0x1 PUSH1 0xA0 SHL SUB AND CALLER EQ PUSH2 0xCBF JUMPI PUSH1 0x40 MLOAD PUSH3 0x461BCD PUSH1 0xE5 SHL DUP2 MSTORE PUSH1 0x20 PUSH1 0x4 DUP3 ADD MSTORE PUSH1 0xD PUSH1 0x24 DUP3 ADD MSTORE PUSH13 0x1058D8D95CDCC811195B9A5959 PUSH1 0x9A SHL PUSH1 0x44 DUP3 ADD MSTORE PUSH1 0x64 ADD PUSH2 0x48C JUMP JUMPDEST PUSH1 0x1 SLOAD PUSH1 0x1 PUSH1 0xA8 SHL SWAP1 DIV PUSH1 0xFF AND ISZERO PUSH2 0xCD6 JUMPI PUSH1 0x0 DUP1 REVERT JUMPDEST PUSH1 0x2 DUP2 DUP2 SLOAD DUP2 LT PUSH2 0xCE9 JUMPI PUSH2 0xCE9 PUSH2 0x137F JUMP JUMPDEST PUSH1 0x0 SWAP2 DUP3 MSTORE PUSH1 0x20 SWAP1 SWAP2 KECCAK256 PUSH1 0x3 SWAP1 SWAP2 MUL ADD DUP1 SLOAD PUSH1 0x4 DUP1 SLOAD PUSH20 0xFFFFFFFFFFFFFFFFFFFFFFFFFFFFFFFFFFFFFFFF NOT AND PUSH1 0x1 PUSH1 0x1 PUSH1 0xA0 SHL SUB SWAP1 SWAP3 AND SWAP2 SWAP1 SWAP2 OR DUP2 SSTORE PUSH1 0x1 DUP3 ADD SLOAD PUSH1 0x5 SSTORE PUSH1 0x6 PUSH2 0xD3E PUSH1 0x2 DUP5 ADD DUP3 PUSH2 0x1395 JUMP JUMPDEST POP POP POP PUSH1 0x7 DUP2 SWAP1 SSTORE PUSH1 0x5 SLOAD PUSH1 0x8 SSTORE PUSH1 0x1 DUP1 SLOAD PUSH32 0xFFFFFFFFFFFFFFFFFFFFFF00FFFFFFFFFFFFFFFFFFFFFFFFFFFFFFFFFFFFFFFF AND PUSH1 0x1 PUSH1 0xA0 SHL OR SWAP1 SSTORE PUSH1 0x4 SLOAD PUSH1 0x40 MLOAD PUSH1 0x1 PUSH1 0x1 PUSH1 0xA0 SHL SUB SWAP1 SWAP2 AND SWAP1 PUSH32 0xDDB3E8E092F582B287E510E57287106C0231B91B97D25C5872442924378808E9 SWAP1 PUSH2 0x65B SWAP1 PUSH1 0x20 DUP1 DUP3 MSTORE PUSH1 0xA SWAP1 DUP3 ADD MSTORE PUSH32 0x417574686F72697A656400000000000000000000000000000000000000000000 PUSH1 0x40 DUP3 ADD MSTORE PUSH1 0x60 ADD SWAP1 JUMP JUMPDEST PUSH1 0x4 DUP1 SLOAD PUSH1 0x5 SLOAD PUSH1 0x6 DUP1 SLOAD PUSH1 0x1 PUSH1 0x1 PUSH1 0xA0 SHL SUB SWAP1 SWAP4 AND SWAP4 SWAP2 SWAP3 PUSH2 0xBF2 SWAP1 PUSH2 0x11CE JUMP JUMPDEST PUSH1 0x0 DUP1 PUSH1 0x60 PUSH1 0x2 DUP5 DUP2 SLOAD DUP2 LT PUSH2 0xE23 JUMPI PUSH2 0xE23 PUSH2 0x137F JUMP JUMPDEST PUSH1 0x0 SWAP2 DUP3 MSTORE PUSH1 0x20 SWAP1 SWAP2 KECCAK256 PUSH1 0x3 SWAP1 SWAP2 MUL ADD SLOAD PUSH1 0x2 DUP1 SLOAD PUSH1 0x1 PUSH1 0x1 PUSH1 0xA0 SHL SUB SWAP1 SWAP3 AND SWAP2 DUP7 SWAP1 DUP2 LT PUSH2 0xE54 JUMPI PUSH2 0xE54 PUSH2 0x137F JUMP JUMPDEST SWAP1 PUSH1 0x0 MSTORE PUSH1 0x20 PUSH1 0x0 KECCAK256 SWAP1 PUSH1 0x3 MUL ADD PUSH1 0x1 ADD SLOAD PUSH1 0x2 DUP7 DUP2 SLOAD DUP2 LT PUSH2 0xE79 JUMPI PUSH2 0xE79 PUSH2 0x137F JUMP JUMPDEST SWAP1 PUSH1 0x0 MSTORE PUSH1 0x20 PUSH1 0x0 KECCAK256 SWAP1 PUSH1 0x3 MUL ADD PUSH1 0x2 ADD DUP1 DUP1 SLOAD PUSH2 0xE96 SWAP1 PUSH2 0x11CE JUMP JUMPDEST DUP1 PUSH1 0x1F ADD PUSH1 0x20 DUP1 SWAP2 DIV MUL PUSH1 0x20 ADD PUSH1 0x40 MLOAD SWAP1 DUP2 ADD PUSH1 0x40 MSTORE DUP1 SWAP3 SWAP2 SWAP1 DUP2 DUP2 MSTORE PUSH1 0x20 ADD DUP3 DUP1 SLOAD PUSH2 0xEC2 SWAP1 PUSH2 0x11CE JUMP JUMPDEST DUP1 ISZERO PUSH2 0xF0F JUMPI DUP1 PUSH1 0x1F LT PUSH2 0xEE4 JUMPI PUSH2 0x100 DUP1 DUP4 SLOAD DIV MUL DUP4 MSTORE SWAP2 PUSH1 0x20 ADD SWAP2 PUSH2 0xF0F JUMP JUMPDEST DUP3 ADD SWAP2 SWAP1 PUSH1 0x0 MSTORE PUSH1 0x20 PUSH1 0x0 KECCAK256 SWAP1 JUMPDEST DUP2 SLOAD DUP2 MSTORE SWAP1 PUSH1 0x1 ADD SWAP1 PUSH1 0x20 ADD DUP1 DUP4 GT PUSH2 0xEF2 JUMPI DUP3 SWAP1 SUB PUSH1 0x1F AND DUP3 ADD SWAP2 JUMPDEST POP POP POP POP POP SWAP1 POP SWAP3 POP SWAP3 POP SWAP3 POP SWAP2 SWAP4 SWAP1 SWAP3 POP JUMP JUMPDEST DUP1 CALLDATALOAD PUSH1 0x1 PUSH1 0x1 PUSH1 0xA0 SHL SUB DUP2 AND DUP2 EQ PUSH2 0xF3A JUMPI PUSH1 0x0 DUP1 REVERT JUMPDEST SWAP2 SWAP1 POP JUMP JUMPDEST PUSH1 0x0 PUSH1 0x20 DUP3 DUP5 SUB SLT ISZERO PUSH2 0xF51 JUMPI PUSH1 0x0 DUP1 REVERT JUMPDEST PUSH2 0xF5A DUP3 PUSH2 0xF23 JUMP JUMPDEST SWAP4 SWAP3 POP POP POP JUMP JUMPDEST PUSH1 0x0 PUSH1 0x20 DUP3 DUP5 SUB SLT ISZERO PUSH2 0xF73 JUMPI PUSH1 0x0 DUP1 REVERT JUMPDEST POP CALLDATALOAD SWAP2 SWAP1 POP JUMP JUMPDEST PUSH1 0x0 DUP2 MLOAD DUP1 DUP5 MSTORE PUSH1 0x0 JUMPDEST DUP2 DUP2 LT ISZERO PUSH2 0xFA0 JUMPI PUSH1 0x20 DUP2 DUP6 ADD DUP2 ADD MLOAD DUP7 DUP4 ADD DUP3 ADD MSTORE ADD PUSH2 0xF84 JUMP JUMPDEST POP PUSH1 0x0 PUSH1 0x20 DUP3 DUP7 ADD ADD MSTORE PUSH1 0x20 PUSH1 0x1F NOT PUSH1 0x1F DUP4 ADD AND DUP6 ADD ADD SWAP2 POP POP SWAP3 SWAP2 POP POP JUMP JUMPDEST PUSH1 0x80 DUP2 MSTORE PUSH1 0x0 PUSH2 0xFD3 PUSH1 0x80 DUP4 ADD DUP8 PUSH2 0xF7A JUMP JUMPDEST DUP6 ISZERO ISZERO PUSH1 0x20 DUP5 ADD MSTORE DUP3 DUP2 SUB PUSH1 0x40 DUP5 ADD MSTORE PUSH2 0xFED DUP2 DUP7 PUSH2 0xF7A JUMP JUMPDEST SWAP2 POP POP DUP3 ISZERO ISZERO PUSH1 0x60 DUP4 ADD MSTORE SWAP6 SWAP5 POP POP POP POP POP JUMP JUMPDEST PUSH4 0x4E487B71 PUSH1 0xE0 SHL PUSH1 0x0 MSTORE PUSH1 0x41 PUSH1 0x4 MSTORE PUSH1 0x24 PUSH1 0x0 REVERT JUMPDEST PUSH1 0x0 DUP3 PUSH1 0x1F DUP4 ADD SLT PUSH2 0x1028 JUMPI PUSH1 0x0 DUP1 REVERT JUMPDEST DUP2 CALLDATALOAD PUSH8 0xFFFFFFFFFFFFFFFF DUP1 DUP3 GT ISZERO PUSH2 0x1043 JUMPI PUSH2 0x1043 PUSH2 0x1001 JUMP JUMPDEST PUSH1 0x40 MLOAD PUSH1 0x1F DUP4 ADD PUSH1 0x1F NOT SWAP1 DUP2 AND PUSH1 0x3F ADD AND DUP2 ADD SWAP1 DUP3 DUP3 GT DUP2 DUP4 LT OR ISZERO PUSH2 0x106B JUMPI PUSH2 0x106B PUSH2 0x1001 JUMP JUMPDEST DUP2 PUSH1 0x40 MSTORE DUP4 DUP2 MSTORE DUP7 PUSH1 0x20 DUP6 DUP9 ADD ADD GT ISZERO PUSH2 0x1084 JUMPI PUSH1 0x0 DUP1 REVERT JUMPDEST DUP4 PUSH1 0x20 DUP8 ADD PUSH1 0x20 DUP4 ADD CALLDATACOPY PUSH1 0x0 PUSH1 0x20 DUP6 DUP4 ADD ADD MSTORE DUP1 SWAP5 POP POP POP POP POP SWAP3 SWAP2 POP POP JUMP JUMPDEST PUSH1 0x0 DUP1 PUSH1 0x40 DUP4 DUP6 SUB SLT ISZERO PUSH2 0x10B7 JUMPI PUSH1 0x0 DUP1 REVERT JUMPDEST DUP3 CALLDATALOAD SWAP2 POP PUSH1 0x20 DUP4 ADD CALLDATALOAD PUSH8 0xFFFFFFFFFFFFFFFF DUP2 GT ISZERO PUSH2 0x10D5 JUMPI PUSH1 0x0 DUP1 REVERT JUMPDEST PUSH2 0x10E1 DUP6 DUP3 DUP7 ADD PUSH2 0x1017 JUMP JUMPDEST SWAP2 POP POP SWAP3 POP SWAP3 SWAP1 POP JUMP JUMPDEST PUSH1 0x0 DUP1 PUSH1 0x40 DUP4 DUP6 SUB SLT ISZERO PUSH2 0x10FE JUMPI PUSH1 0x0 DUP1 REVERT JUMPDEST DUP3 CALLDATALOAD PUSH8 0xFFFFFFFFFFFFFFFF DUP2 GT ISZERO PUSH2 0x1115 JUMPI PUSH1 0x0 DUP1 REVERT JUMPDEST PUSH2 0x1121 DUP6 DUP3 DUP7 ADD PUSH2 0x1017 JUMP JUMPDEST SWAP3 POP POP PUSH2 0x1130 PUSH1 0x20 DUP5 ADD PUSH2 0xF23 JUMP JUMPDEST SWAP1 POP SWAP3 POP SWAP3 SWAP1 POP JUMP JUMPDEST PUSH1 0x1 PUSH1 0x1 PUSH1 0xA0 SHL SUB DUP5 AND DUP2 MSTORE PUSH1 0x60 PUSH1 0x20 DUP3 ADD MSTORE PUSH1 0x0 PUSH2 0x115B PUSH1 0x60 DUP4 ADD DUP6 PUSH2 0xF7A JUMP JUMPDEST SWAP1 POP DUP3 PUSH1 0x40 DUP4 ADD MSTORE SWAP5 SWAP4 POP POP POP POP JUMP JUMPDEST PUSH1 0x20 DUP2 MSTORE PUSH1 0x0 PUSH2 0xF5A PUSH1 0x20 DUP4 ADD DUP5 PUSH2 0xF7A JUMP JUMPDEST DUP4 DUP2 MSTORE DUP3 PUSH1 0x20 DUP3 ADD MSTORE PUSH1 0x60 PUSH1 0x40 DUP3 ADD MSTORE PUSH1 0x0 PUSH2 0x119D PUSH1 0x60 DUP4 ADD DUP5 PUSH2 0xF7A JUMP JUMPDEST SWAP6 SWAP5 POP POP POP POP POP JUMP JUMPDEST PUSH1 0x1 PUSH1 0x1 PUSH1 0xA0 SHL SUB DUP5 AND DUP2 MSTORE DUP3 PUSH1 0x20 DUP3 ADD MSTORE PUSH1 0x60 PUSH1 0x40 DUP3 ADD MSTORE PUSH1 0x0 PUSH2 0x119D PUSH1 0x60 DUP4 ADD DUP5 PUSH2 0xF7A JUMP JUMPDEST PUSH1 0x1 DUP2 DUP2 SHR SWAP1 DUP3 AND DUP1 PUSH2 0x11E2 JUMPI PUSH1 0x7F DUP3 AND SWAP2 POP JUMPDEST PUSH1 0x20 DUP3 LT DUP2 SUB PUSH2 0x1202 JUMPI PUSH4 0x4E487B71 PUSH1 0xE0 SHL PUSH1 0x0 MSTORE PUSH1 0x22 PUSH1 0x4 MSTORE PUSH1 0x24 PUSH1 0x0 REVERT JUMPDEST POP SWAP2 SWAP1 POP JUMP JUMPDEST PUSH1 0x1F DUP3 GT ISZERO PUSH2 0x1252 JUMPI PUSH1 0x0 DUP2 DUP2 MSTORE PUSH1 0x20 DUP2 KECCAK256 PUSH1 0x1F DUP6 ADD PUSH1 0x5 SHR DUP2 ADD PUSH1 0x20 DUP7 LT ISZERO PUSH2 0x122F JUMPI POP DUP1 JUMPDEST PUSH1 0x1F DUP6 ADD PUSH1 0x5 SHR DUP3 ADD SWAP2 POP JUMPDEST DUP2 DUP2 LT ISZERO PUSH2 0x124E JUMPI DUP3 DUP2 SSTORE PUSH1 0x1 ADD PUSH2 0x123B JUMP JUMPDEST POP POP POP JUMPDEST POP POP POP JUMP JUMPDEST DUP2 MLOAD PUSH8 0xFFFFFFFFFFFFFFFF DUP2 GT ISZERO PUSH2 0x1271 JUMPI PUSH2 0x1271 PUSH2 0x1001 JUMP JUMPDEST PUSH2 0x1285 DUP2 PUSH2 0x127F DUP5 SLOAD PUSH2 0x11CE JUMP JUMPDEST DUP5 PUSH2 0x1208 JUMP JUMPDEST PUSH1 0x20 DUP1 PUSH1 0x1F DUP4 GT PUSH1 0x1 DUP2 EQ PUSH2 0x12BA JUMPI PUSH1 0x0 DUP5 ISZERO PUSH2 0x12A2 JUMPI POP DUP6 DUP4 ADD MLOAD JUMPDEST PUSH1 0x0 NOT PUSH1 0x3 DUP7 SWAP1 SHL SHR NOT AND PUSH1 0x1 DUP6 SWAP1 SHL OR DUP6 SSTORE PUSH2 0x124E JUMP JUMPDEST PUSH1 0x0 DUP6 DUP2 MSTORE PUSH1 0x20 DUP2 KECCAK256 PUSH1 0x1F NOT DUP7 AND SWAP2 JUMPDEST DUP3 DUP2 LT ISZERO PUSH2 0x12E9 JUMPI DUP9 DUP7 ADD MLOAD DUP3 SSTORE SWAP5 DUP5 ADD SWAP5 PUSH1 0x1 SWAP1 SWAP2 ADD SWAP1 DUP5 ADD PUSH2 0x12CA JUMP JUMPDEST POP DUP6 DUP3 LT ISZERO PUSH2 0x1307 JUMPI DUP8 DUP6 ADD MLOAD PUSH1 0x0 NOT PUSH1 0x3 DUP9 SWAP1 SHL PUSH1 0xF8 AND SHR NOT AND DUP2 SSTORE JUMPDEST POP POP POP POP POP PUSH1 0x1 SWAP1 DUP2 SHL ADD SWAP1 SSTORE POP JUMP JUMPDEST PUSH4 0x4E487B71 PUSH1 0xE0 SHL PUSH1 0x0 MSTORE PUSH1 0x11 PUSH1 0x4 MSTORE PUSH1 0x24 PUSH1 0x0 REVERT JUMPDEST DUP1 DUP3 MUL DUP2 ISZERO DUP3 DUP3 DIV DUP5 EQ OR PUSH2 0x1344 JUMPI PUSH2 0x1344 PUSH2 0x1317 JUMP JUMPDEST SWAP3 SWAP2 POP POP JUMP JUMPDEST PUSH1 0x0 DUP3 PUSH2 0x1367 JUMPI PUSH4 0x4E487B71 PUSH1 0xE0 SHL PUSH1 0x0 MSTORE PUSH1 0x12 PUSH1 0x4 MSTORE PUSH1 0x24 PUSH1 0x0 REVERT JUMPDEST POP DIV SWAP1 JUMP JUMPDEST DUP2 DUP2 SUB DUP2 DUP2 GT ISZERO PUSH2 0x1344 JUMPI PUSH2 0x1344 PUSH2 0x1317 JUMP JUMPDEST PUSH4 0x4E487B71 PUSH1 0xE0 SHL PUSH1 0x0 MSTORE PUSH1 0x32 PUSH1 0x4 MSTORE PUSH1 0x24 PUSH1 0x0 REVERT JUMPDEST DUP2 DUP2 SUB PUSH2 0x13A0 JUMPI POP POP JUMP JUMPDEST PUSH2 0x13AA DUP3 SLOAD PUSH2 0x11CE JUMP JUMPDEST PUSH8 0xFFFFFFFFFFFFFFFF DUP2 GT ISZERO PUSH2 0x13C2 JUMPI PUSH2 0x13C2 PUSH2 0x1001 JUMP JUMPDEST PUSH2 0x13D0 DUP2 PUSH2 0x127F DUP5 SLOAD PUSH2 0x11CE JUMP JUMPDEST PUSH1 0x0 PUSH1 0x1F DUP3 GT PUSH1 0x1 DUP2 EQ PUSH2 0x1404 JUMPI PUSH1 0x0 DUP4 ISZERO PUSH2 0x13EC JUMPI POP DUP5 DUP3 ADD SLOAD JUMPDEST PUSH1 0x0 NOT PUSH1 0x3 DUP6 SWAP1 SHL SHR NOT AND PUSH1 0x1 DUP5 SWAP1 SHL OR DUP5 SSTORE PUSH2 0x1469 JUMP JUMPDEST PUSH1 0x0 DUP6 DUP2 MSTORE PUSH1 0x20 SWAP1 KECCAK256 PUSH1 0x1F NOT DUP5 AND SWAP1 PUSH1 0x0 DUP7 DUP2 MSTORE PUSH1 0x20 SWAP1 KECCAK256 DUP5 JUMPDEST DUP4 DUP2 LT ISZERO PUSH2 0x143E JUMPI DUP3 DUP7 ADD SLOAD DUP3 SSTORE PUSH1 0x1 SWAP6 DUP7 ADD SWAP6 SWAP1 SWAP2 ADD SWAP1 PUSH1 0x20 ADD PUSH2 0x141E JUMP JUMPDEST POP DUP6 DUP4 LT ISZERO PUSH2 0x145C JUMPI DUP2 DUP6 ADD SLOAD PUSH1 0x0 NOT PUSH1 0x3 DUP9 SWAP1 SHL PUSH1 0xF8 AND SHR NOT AND DUP2 SSTORE JUMPDEST POP POP POP PUSH1 0x1 DUP4 PUSH1 0x1 SHL ADD DUP5 SSTORE JUMPDEST POP POP POP POP POP JUMP INVALID LOG2 PUSH5 0x6970667358 0x22 SLT KECCAK256 PUSH14 0x683906B635EECB7443F38B888BE9 PUSH29 0xCE1E75F68DFE2A65F254701DC8AA5EB764736F6C634300081100330000 "
    },
    "gasEstimates": {
      "creation": {
        "codeDepositCost": "1057200",
        "executionCost": "25335",
        "totalCost": "1082535"
      },
      "external": {
        "awaiting()": "2394",
        "complete()": "2372",
        "data()": "infinite",
        "finalizeBid(uint256)": "infinite",
        "getBidCount()": "2349",
        "getBidSummary(uint256)": "infinite",
        "getSummary()": "infinite",
        "getcontractBalance()": "228",
        "hiddenBids(uint256)": "infinite",
        "makeBid(uint256,string)": "infinite",
        "manager()": "2405",
        "payBid(uint256)": "32910",
        "recievePay()": "infinite",
        "status()": "infinite",
        "tender(string,address)": "infinite",
        "verifyManager()": "2370",
        "winIndex()": "2308",
        "winner()": "infinite",
        "withdrawFees(address)": "infinite"
      }
    },
    "methodIdentifiers": {
      "awaiting()": "5d73753f",
      "complete()": "522e1177",
      "data()": "73d4a13a",
      "finalizeBid(uint256)": "cb6cbe8f",
      "getBidCount()": "28f6a48a",
      "getBidSummary(uint256)": "f82e1552",
      "getSummary()": "4051ddac",
      "getcontractBalance()": "8e4d5053",
      "hiddenBids(uint256)": "c8f17094",
      "makeBid(uint256,string)": "2a4230e2",
      "manager()": "481c6a75",
      "payBid(uint256)": "1e1769ed",
      "recievePay()": "4281cebf",
      "status()": "200d2ed2",
      "tender(string,address)": "2d196a8e",
      "verifyManager()": "10d2f82f",
      "winIndex()": "0a46572f",
      "winner()": "dfbf53ae",
      "withdrawFees(address)": "164e68de"
    }
  },
  "storageLayout": {
    "storage": [
      {
        "astId": 9,
        "contract": "tender.sol:Tender",
        "label": "data",
        "offset": 0,
        "slot": "0",
        "type": "t_string_storage"
      },
      {
        "astId": 11,
        "contract": "tender.sol:Tender",
        "label": "manager",
        "offset": 0,
        "slot": "1",
        "type": "t_address_payable"
      },
      {
        "astId": 13,
        "contract": "tender.sol:Tender",
        "label": "awaiting",
        "offset": 20,
        "slot": "1",
        "type": "t_bool"
      },
      {
        "astId": 15,
        "contract": "tender.sol:Tender",
        "label": "complete",
        "offset": 21,
        "slot": "1",
        "type": "t_bool"
      },
      {
        "astId": 34,
        "contract": "tender.sol:Tender",
        "label": "bids",
        "offset": 0,
        "slot": "2",
        "type": "t_array(t_struct(Bid)22_storage)dyn_storage"
      },
      {
        "astId": 38,
        "contract": "tender.sol:Tender",
        "label": "hiddenBids",
        "offset": 0,
        "slot": "3",
        "type": "t_array(t_struct(hiddenBid)29_storage)dyn_storage"
      },
      {
        "astId": 41,
        "contract": "tender.sol:Tender",
        "label": "winner",
        "offset": 0,
        "slot": "4",
        "type": "t_struct(Bid)22_storage"
      },
      {
        "astId": 43,
        "contract": "tender.sol:Tender",
        "label": "winIndex",
        "offset": 0,
        "slot": "7",
        "type": "t_uint256"
      },
      {
        "astId": 45,
        "contract": "tender.sol:Tender",
        "label": "bid_amount",
        "offset": 0,
        "slot": "8",
        "type": "t_uint256"
      }
    ],
    "types": {
      "t_address": {
        "encoding": "inplace",
        "label": "address",
        "numberOfBytes": "20"
      },
      "t_address_payable": {
        "encoding": "inplace",
        "label": "address payable",
        "numberOfBytes": "20"
      },
      "t_array(t_struct(Bid)22_storage)dyn_storage": {
        "base": "t_struct(Bid)22_storage",
        "encoding": "dynamic_array",
        "label": "struct Tender.Bid[]",
        "numberOfBytes": "32"
      },
      "t_array(t_struct(hiddenBid)29_storage)dyn_storage": {
        "base": "t_struct(hiddenBid)29_storage",
        "encoding": "dynamic_array",
        "label": "struct Tender.hiddenBid[]",
        "numberOfBytes": "32"
      },
      "t_bool": {
        "encoding": "inplace",
        "label": "bool",
        "numberOfBytes": "1"
      },
      "t_string_storage": {
        "encoding": "bytes",
        "label": "string",
        "numberOfBytes": "32"
      },
      "t_struct(Bid)22_storage": {
        "encoding": "inplace",
        "label": "struct Tender.Bid",
        "members": [
          {
            "astId": 17,
            "contract": "tender.sol:Tender",
            "label": "bidder",
            "offset": 0,
            "slot": "0",
            "type": "t_address"
          },
          {
            "astId": 19,
            "contract": "tender.sol:Tender",
            "label": "bidAmount",
            "offset": 0,
            "slot": "1",
            "type": "t_uint256"
          },
          {
            "astId": 21,
            "contract": "tender.sol:Tender",
            "label": "bid",
            "offset": 0,
            "slot": "2",
            "type": "t_string_storage"
          }
        ],
        "numberOfBytes": "96"
      },
      "t_struct(hiddenBid)29_storage": {
        "encoding": "inplace",
        "label": "struct Tender.hiddenBid",
        "members": [
          {
            "astId": 24,
            "contract": "tender.sol:Tender",
            "label": "ID",
            "offset": 0,
            "slot": "0",
            "type": "t_uint256"
          },
          {
            "astId": 26,
            "contract": "tender.sol:Tender",
            "label": "bidAmount",
            "offset": 0,
            "slot": "1",
            "type": "t_uint256"
          },
          {
            "astId": 28,
            "contract": "tender.sol:Tender",
            "label": "bid",
            "offset": 0,
            "slot": "2",
            "type": "t_string_storage"
          }
        ],
        "numberOfBytes": "96"
      },
      "t_uint256": {
        "encoding": "inplace",
        "label": "uint256",
        "numberOfBytes": "32"
      }
    }
  },
  "userdoc": {
    "kind": "user",
    "methods": {},
    "version": 1
  }
}